:10000000DAC000009CC30000CBC30000FAC30000AC
:1000100029C4000058C4000087C40000B6C4000012
:10002000E5C40000F8C00000F6C00000F4C0000005
:10003000F2C00000F0C00000EEC00000ECC0000004
:10004000EAC00000E8C00000E6C00000E4C0000014
:10005000BAC10000E0C00000DEC00000F8C400002B
:10006000DAC0000054C7000088C70000D4C00000F8
:10007000D2C00000D0C00000CEC00000CCC0000044
:10008000CAC00000C8C00000C6C00000C4C0000054
:10009000C2C00000C0C00000BEC00000BCC0000064
:1000A000BAC00000B8C00000B6C00000B4C0000074
:1000B000B2C00000B0C00000AEC00000ACC0000084
:1000C000AAC00000A8C00000A6C00000A4C0000094
:1000D000A2C00000A0C000009EC000009CC00000A4
:1000E0009AC00000790343034B035703640385035D
:1000F00092030102102020080810204010204080A8
:1001000002010201080402010102040810204080DB
:100110008040201008040201800402018040201069
:1001200008040201080402010102040810204080B2
:100130000102040810204080050505050705080890
:100140000808020202020A0A080804040404010161
:100150000101010101010303030303030303040776
:1001600007070C0C0C0C0C0C0C0C0202020206060D
:100170000606060606060B0B0B0B0B0B0B0B000003
:100180002200250028002B002E003100340002013F
:100190000000050108010B010000210024002700D8
:1001A0002A002D0030003300010100000401070186
:1001B0000A010D03EF0711241FBECFEFD1E2DEBF0E
:1001C000CDBF00E00CBF12E0A0E0B2E0E2EFF8E14A
:1001D00000E00BBF02C007900D92AC39B107D9F710
:1001E00023E0ACE9B2E001C01D92A73AB207E1F703
:1001F00011E0C6EBD1E000E006C022970109FE0144
:100200000BBF0E94730CC23BD10780E00807A9F71F
:100210002AD70C94770CF4CECF92DF92EF92FF9214
:100220008FB78093A002F89480918400909185000C
:10023000A0E0B0E08093A1029093A202A093A30259
:10024000B093A4028091A0028FBFC090A102D09071
:10025000A202E090A302F090A4028091A5029091E6
:10026000A602A091A702B091A802772766276C0D7D
:100270007D1D8E1D9F1D0E942E0B20919C02309192
:100280009D0240919E0250919F020E942C0A20E004
:1002900034E244E75BE40E94950A60939C02709309
:1002A0009D0280939E0290939F022AE030E0B70166
:1002B000A6018AE093E0D7D760E072E08AE093E09D
:1002C0001AD74091A5025091A6026091A7027091A1
:1002D000A8022AE030E08AE093E0C5D760E072E04F
:1002E0008AE093E008D740919C0250919D02609172
:1002F0009E0270919F0222E030E08AE093E00E942B
:100300001C0A1092A5021092A6021092A702109247
:10031000A802FF90EF90DF90CF90089548EB5BE04C
:1003200060E070E089EA92E0CED020E835E240E07B
:1003300050E06AE073E089EA92E0D8D061E089EAAF
:1003400092E08ED0882389F062E072E08091EB0227
:100350009091EC02D0D64AE050E060E070E089EA8B
:1003600092E07CD089EA92E0ADD041E060E089EA99
:1003700092E039D126E040E855E260E070E08AE0A2
:1003800093E065D5F894109280001092810010924D
:10039000850010928400809180008093800080917D
:1003A000810081608093810080916F0081608093E3
:1003B0006F00789462E082E002D443E050E06CE0A9
:1003C00071E080E04BC11F920F920FB60F92112483
:1003D0008F939F93AF93BF938091A5029091A602B4
:1003E000A091A702B091A8020196A11DB11D809312
:1003F000A5029093A602A093A702B093A802BF9172
:10040000AF919F918F910F900FBE0F901F901895F5
:1004100008958F929F92AF92BF92CF92DF92EF9208
:10042000FF926A017B015DD34B015C01C60ED71EB2
:10043000E81EF91E56D3681579058A059B0528F034
:10044000C616D706E806F906A8F7FF90EF90DF90EA
:10045000CF90BF90AF909F908F90089521E0D9CF1B
:10046000CF92DF92EF92FF92CF93DF93EC01611175
:100470001CC037D3CA80DB80EC80FD806C197D09FD
:100480008E099F09643671058105910570F424E693
:10049000C22ED12CE12CF12CC61AD70AE80AF90A8F
:1004A00021E0B701A601CE01B4DF1BD36A837B83B1
:1004B0008C839D8381E0DF91CF91FF90EF90DF905F
:1004C000CF9008950895FC01EC5BFF4F10821182DC
:1004D00012821382FC01128213821482158241154A
:1004E00051056105710509F0B9CF0895FB01BA0105
:1004F000A9018E5B9F4FDC01ED93FC9326E0CF01B9
:10050000A6C48E5B9F4FDC018D919C91DC01ED9127
:10051000FC910680F781E02D199508958E5B9F4F21
:10052000DC018D919C91DC01ED91FC910480F581C1
:10053000E02D19950895FF920F931F93CF93DF93AA
:10054000EC01F62ECED26A837B838C839D838E0151
:100550000E5B1F4F66E272E0F80180819181CBD57E
:100560004AE050E06F2DF8018081918188D66DE2DC
:1005700072E0F80180819181BED542E350E060E0F5
:1005800070E0CE01DF91CF911F910F91FF9066CF68
:100590001F93CF93DF93EC01162F8E898823F1F000
:1005A000CE01BCDF811102C085E619C0CE01B6DFE5
:1005B0008823D1F3CE01A5DF883681F040F4883559
:1005C00061F0833699F7612FCE01B5DF07C081371F
:1005D00029F0863759F786E702C01E8A83E6DF9145
:1005E000CF911F9108951F93CF93DF93EC01142FA8
:1005F000611105C01E8BDF91CF911F91089581E09D
:100600008E8B60E0CE01C4DF8336A1F341E050E081
:1006100060E070E0CE0122DFF4CF1092AF021092C2
:10062000B0021092B1021092B2021092B302109274
:10063000B4021092B5021092B6021092B702109254
:10064000B8021092B9021092BA021092BB02109234
:10065000BC021092BD021092BE020895883008F0CC
:100660006DC0E82FF0E0EE0FFF1FEF50FD4F7183DC
:10067000608390E0FC013197E730F10590F5EE588A
:10068000FF4F0C946D0C809169008C7F842B8093BC
:100690006900E89A089580916900440F551F440F3E
:1006A000551F837F842B80936900E99A0895809178
:1006B000690074E0440F551F7A95E1F78F7C842B15
:1006C00080936900EA9A08958091690066E0440F7A
:1006D000551F6A95E1F78F73842B80936900EB9A1D
:1006E000089580916A008C7F842B80936A00EC9A35
:1006F000089580916A00440F551F440F551F837F52
:10070000842B80936A00ED9A089580916A0024E01A
:10071000440F551F2A95E1F78F7C842B80936A0044
:10072000EE9A089580916A0096E0440F551F9A95BD
:10073000E1F78F73842B80936A00EF9A08951F92DC
:100740000F920FB60F9211240BB60F922F933F9377
:100750004F935F936F937F938F939F93AF93BF93C9
:10076000EF93FF938091F5029091F602892B29F087
:10077000E091F502F091F6021995FF91EF91BF918A
:10078000AF919F918F917F916F915F914F913F9129
:100790002F910F900BBE0F900FBE0F901F901895CA
:1007A0001F920F920FB60F9211240BB60F922F9338
:1007B0003F934F935F936F937F938F939F93AF93E9
:1007C000BF93EF93FF938091F7029091F802892BEA
:1007D00029F0E091F702F091F8021995FF91EF915D
:1007E000BF91AF919F918F917F916F915F914F9149
:1007F0003F912F910F900BBE0F900FBE0F901F9047
:1008000018951F920F920FB60F9211240BB60F92EC
:100810002F933F934F935F936F937F938F939F9308
:10082000AF93BF93EF93FF938091F9029091FA02F7
:10083000892B29F0E091F902F091FA021995FF91C4
:10084000EF91BF91AF919F918F917F916F915F9148
:100850004F913F912F910F900BBE0F900FBE0F90B5
:100860001F9018951F920F920FB60F9211240BB67E
:100870000F922F933F934F935F936F937F938F9339
:100880009F93AF93BF93EF93FF938091FB0290915F
:10089000FC02892B29F0E091FB02F091FC021995F2
:1008A000FF91EF91BF91AF919F918F917F916F9148
:1008B0005F914F913F912F910F900BBE0F900FBE04
:1008C0000F901F9018951F920F920FB60F92112440
:1008D0000BB60F922F933F934F935F936F937F933A
:1008E0008F939F93AF93BF93EF93FF938091F10208
:1008F0009091F202892B29F0E091F102F091F2023D
:100900001995FF91EF91BF91AF919F918F917F9139
:100910006F915F914F913F912F910F900BBE0F9070
:100920000FBE0F901F9018951F920F920FB60F9247
:1009300011240BB60F922F933F934F935F936F93B6
:100940007F938F939F93AF93BF93EF93FF93809188
:10095000F3029091F402892B29F0E091F302F091D7
:10096000F4021995FF91EF91BF91AF919F918F91F3
:100970007F916F915F914F913F912F910F900BBE9F
:100980000F900FBE0F901F9018951F920F920FB6E9
:100990000F9211240BB60F922F933F934F935F93B7
:1009A0006F937F938F939F93AF93BF93EF93FF9337
:1009B0008091FD029091FE02892B29F0E091FD02C9
:1009C000F091FE021995FF91EF91BF91AF919F9128
:1009D0008F917F916F915F914F913F912F910F90E8
:1009E0000BBE0F900FBE0F901F9018951F920F9285
:1009F0000FB60F9211240BB60F922F933F934F9384
:100A00005F936F937F938F939F93AF93BF93EF9376
:100A1000FF938091FF0290910003892B29F0E091D0
:100A2000FF02F09100031995FF91EF91BF91AF91F3
:100A30009F918F917F916F915F914F913F912F91F6
:100A40000F900BBE0F900FBE0F901F9018951F9226
:100A50000F920FB60F9211242F933F938F939F9372
:100A6000AF93BF938091020390910303A09104037D
:100A7000B09105033091010323E0230F2D3720F4BB
:100A80000196A11DB11D05C026E8230F0296A11DE8
:100A9000B11D209301038093020390930303A0935D
:100AA0000403B09305038091060390910703A0917E
:100AB0000803B09109030196A11DB11D809306039F
:100AC00090930703A0930803B0930903BF91AF91DC
:100AD0009F918F913F912F910F900FBE0F901F907C
:100AE00018952FB7F89460910203709103038091D9
:100AF0000403909105032FBF0895789484B5826014
:100B000084BD84B5816084BD85B5826085BD85B5B1
:100B1000816085BDEEE6F0E0808181608083E1E860
:100B2000F0E0108280818260808380818160808398
:100B3000E0E8F0E0808181608083E1EBF0E080819B
:100B400084608083E0EBF0E0808181608083E1E974
:100B5000F0E0808182608083808181608083E0E931
:100B6000F0E0808181608083E1EAF0E08081826052
:100B70008083808181608083E0EAF0E08081816011
:100B80008083E1E2F1E08081826080838081816006
:100B90008083E0E2F1E0808181608083EAE7F0E039
:100BA0008081846080838081826080838081816095
:100BB00080838081806880831092C1000895CF93E4
:100BC000DF9390E0FC01EE50FF4F2491FC01E85CC4
:100BD000FE4F8491882349F190E0880F991FFC0112
:100BE000E856FE4FA591B49182589E4FFC01C591E5
:100BF000D4919FB7611108C0F8948C9120958223FD
:100C00008C93888182230AC0623051F4F8948C91CD
:100C1000322F309583238C938881822B888304C064
:100C2000F8948C91822B8C939FBFDF91CF91089584
:100C3000FC01818D228D90E0805C9F4F821B910989
:100C40008F7399270895FC01918D828D981731F04B
:100C5000828DE80FF11D858D90E008958FEF9FEF55
:100C60000895FC01918D828D981761F0828DDF01CE
:100C7000A80FB11D5D968C91928D9F5F9F73928F8F
:100C800090E008958FEF9FEF089586EE97E0892B0F
:100C900039F080E090E0892B19F098D1811125C0BE
:100CA00080E090E0892B41F080E090E0892B21F0FA
:100CB0000E94000081111CC080E090E0892B41F06F
:100CC00080E090E0892B21F00E940000811113C088
:100CD00080E090E0892BA1F080E090E0892B81F00A
:100CE0000E94000081110AC008950E940000D8CF20
:100CF0000E940000E1CF0E940000EACF0C940000A7
:100D00000895FC01848DDF01A80FB11DA35ABF4FC8
:100D10002C91848D90E001968F739927848FA689FA
:100D2000B7892C93A089B1898C9180648C93938D21
:100D3000848D981306C00288F389E02D80818F7D11
:100D400080830895CF93DF93EC01888D8823C1F0D1
:100D5000EA89FB89808185FD05C0A889B9898C91C4
:100D600086FD0EC00FB607FCF5CF808185FFF2CF60
:100D7000A889B9898C9185FFEDCFCE01C2DFE8CF7C
:100D8000DF91CF910895CF92DF92FF920F931F933F
:100D9000CF93DF931F92CDB7DEB76C01DC015B967A
:100DA0009C915B975C968C915C97981307C05096CA
:100DB000ED91FC915197808185FD31C0F601038D45
:100DC00010E00F5F1F4F0F731127F02EF601848D77
:100DD000F81210C00FB607FCF9CFD6015096ED916E
:100DE000FC915197808185FFF1CFC601698389DF2E
:100DF0006981ECCF838DE80FF11DE35AFF4F6083CB
:100E0000D6015B960C935B975296ED91FC915397AC
:100E100080818062808381E058968C930DC0D601DA
:100E20005696ED91FC91579760835096ED91FC9109
:100E3000519780818064808381E090E00F90DF9102
:100E4000CF911F910F91FF90DF90CF900895BF92A7
:100E5000CF92DF92EF92FF92CF93DF93EC016A0182
:100E60007B01B22EE889F98982E08083411581EE09
:100E700058076105710599F060E079E08DE390E035
:100E8000A701960108D5215031094109510956950C
:100E9000479537952795211580E1380790F0E88927
:100EA000F989108260E874E88EE190E0A70196016C
:100EB000F2D421503109410951095695479537958A
:100EC0002795EC85FD853083EE85FF852083188E80
:100ED000EC89FD89B082EA89FB8980818061808309
:100EE000EA89FB89808188608083EA89FB89808127
:100EF00080688083EA89FB8980818F7D8083DF9190
:100F0000CF91FF90EF90DF90CF90BF9008951F9208
:100F10000F920FB60F9211240BB60F922F938F934F
:100F20009F93EF93FF93E0911A03F0911B0380814D
:100F3000E0912003F091210382FD12C09081809105
:100F400023038F5F8F7320912403821751F0E09168
:100F50002303F0E0E65FFC4F958F8093230301C0ED
:100F60008081FF91EF919F918F912F910F900BBEF8
:100F70000F900FBE0F901F9018951F920F920FB6F3
:100F80000F9211240BB60F922F933F934F935F93C1
:100F90006F937F938F939F93AF93BF93EF93FF9341
:100FA0008AE093E0AEDEFF91EF91BF91AF919F9108
:100FB0008F917F916F915F914F913F912F910F9002
:100FC0000BBE0F900FBE0F901F9018958AE093E014
:100FD0002FDE21E0892B09F420E0822F0895109262
:100FE0000D0310920C0388EE93E0A0E0B0E0809334
:100FF0000E0390930F03A0931003B093110382E8A4
:1010000092E090930B0380930A0385EC90E0909319
:1010100017038093160384EC90E090931903809358
:10102000180380EC90E090931B0380931A0381ECEB
:1010300090E090931D0380931C0382EC90E09093CA
:101040001F0380931E0386EC90E09093210380930E
:101050002003109223031092240310922503109270
:1010600026030895089549DDFDDF58D9C5E4D6E08B
:10107000CFD92097E9F309DEFBCFCF92DF92EF9231
:10108000FF920F931F93CF93DF936C017A01EB01D3
:10109000E60EF71E00E010E0CE15DF0561F0699165
:1010A000D601ED91FC910190F081E02DC6011995DA
:1010B000080F191FF1CFC801DF91CF911F910F9138
:1010C000FF90EF90DF90CF9008956115710581F04A
:1010D000DB010D900020E9F7AD0141505109461B9D
:1010E000570BDC01ED91FC910280F381E02D199406
:1010F00080E090E00895E9CFDC01ED91FC91019052
:10110000F081E02D19940F931F93CF93DF93EC019F
:101110006DE0F2DF8C016AE0CE01EEDF800F911FFF
:10112000DF91CF911F910F9108958F929F92AF926F
:10113000BF92CF92DF92EF92FF920F931F93CF93C4
:10114000DF93CDB7DEB7A1970FB6F894DEBF0FBE21
:10115000CDBF7C01C42EE52FCB01D22E19A221E0F8
:101160002D1510F02AE0D22E8E010F5D1F4F8D2C11
:10117000912CA12CB12C6C2D7E2FA50194018BD329
:101180008C2DD29E80191124015011098A3014F43B
:10119000805D01C0895CF80180832115310541051E
:1011A000510521F0C22EE32FCA01E5CFB801C701D6
:1011B0008CDFA1960FB6F894DEBF0FBECDBFDF91D6
:1011C000CF911F910F91FF90EF90DF90CF90BF9044
:1011D000AF909F908F900895CF92DF92EF92FF9201
:1011E0000F931F93CF93DF93EC016A017B012115CD
:1011F000310579F4E881F9810190F081E02D642FC7
:10120000DF91CF911F910F91FF90EF90DF90CF90E2
:1012100019942A303105D9F477FF18C06DE26CDFDC
:101220008C0144275527BA014C195D096E097F09C5
:101230002AE0CE017ADF800F911FDF91CF911F91BD
:101240000F91FF90EF90DF90CF9008952AE0B701C3
:10125000A601CE01DF91CF911F910F91FF90EF90EA
:10126000DF90CF9062CF2115310541F4DC01ED9183
:10127000FC910190F081E02D642F199456CF9A01D2
:10128000462F50E060E070E0EECF4F925F926F9299
:101290007F928F929F92AF92BF92CF92DF92EF9206
:1012A000FF920F931F93CF93DF93EC016A017B01B1
:1012B000B22E9A01AB01C701B601E9D2882319F019
:1012C0006EE872E024C026013701E89477F82FEF2A
:1012D0003FEF4FE75FE7C301B201D9D281110CC0E4
:1012E0002FEF3FEF4FE75FE7C301B2011AD11816A6
:1012F0001CF462E972E00BC02FEF3FEF4FE75FE4B1
:10130000C701B6015DD21816A4F466E972E0CE01F9
:10131000DF91CF911F910F91FF90EF90DF90CF90D1
:10132000BF90AF909F908F907F906F905F904F9005
:10133000CCCE2FEF3FEF4FE75FECC701B601F1D006
:1013400087FDE3CF20E030E0A901C701B601E9D075
:1013500087FF09C06DE2CE01CFDE8C01F7FAF09471
:10136000F7F8F09402C000E010E0A12C60E070E01B
:1013700080E09FE3AB1439F020E030E040E251E43C
:10138000D4D0A394F7CF9B01AC01C701B60165D0BF
:101390006B017C0137D12B013C0160D19B01AC0179
:1013A000C701B60159D06B017C012AE0B301A2014B
:1013B000CE01BBDE080F191FBB2031F06AE972E0D5
:1013C000CE0183DE080F191F7B2C772019F120E056
:1013D00030E040E251E4C701B601F6D16B017C0177
:1013E0000CD14B01AA2497FCA094BA2C2AE030E03F
:1013F000B501A401CE01F0DE080F191FC501B4012B
:101400002FD19B01AC01C701B60126D06B017C0135
:101410007A94DBCFC801DF91CF911F910F91FF909C
:10142000EF90DF90CF90BF90AF909F908F907F9084
:101430006F905F904F9008950F931F93CF93DF931A
:10144000EC0123DF8C01CE015EDE800F911FDF9166
:10145000CF911F910F9108955058BB27AA270ED006
:1014600075C166D130F06BD120F031F49F3F11F49B
:101470001EF45BC10EF4E095E7FB51C1E92F77D173
:1014800080F3BA17620773078407950718F071F4A1
:101490009EF58FC10EF4E0950B2EBA2FA02D0B01F7
:1014A000B90190010C01CA01A0011124FF27591BA9
:1014B00099F0593F50F4503E68F11A16F040A22FAF
:1014C000232F342F4427585FF3CF46953795279520
:1014D000A795F0405395C9F77EF41F16BA0B620B1F
:1014E000730B840BBAF09150A1F0FF0FBB1F661F66
:1014F000771F881FC2F70EC0BA0F621F731F841FA9
:1015000048F4879577956795B795F7959E3F08F0CE
:10151000B3CF9395880F08F09927EE0F979587958D
:101520000895D9D008F481E008950CD00FC107D1F7
:1015300040F0FED030F021F45F3F19F0F0C05111BF
:1015400039C1F3C014D198F39923C9F35523B1F3EA
:10155000951B550BBB27AA2762177307840738F022
:101560009F5F5F4F220F331F441FAA1FA9F333D081
:101570000E2E3AF0E0E830D091505040E695001C35
:10158000CAF729D0FE2F27D0660F771F881FBB1FF1
:10159000261737074807AB07B0E809F0BB0B802DCB
:1015A000BF01FF2793585F4F2AF09E3F510568F017
:1015B000B6C000C15F3FECF3983EDCF386957795AB
:1015C0006795B795F7959F5FC9F7880F911D969519
:1015D000879597F90895E1E0660F771F881FBB1F75
:1015E000621773078407BA0720F0621B730B840B22
:1015F000BA0BEE1F88F7E095089504D06894B111F6
:10160000D9C00895BCD088F09F5790F0B92F992782
:10161000B751A0F0D1F0660F771F881F991F1AF0FD
:10162000BA95C9F712C0B13081F0C3D0B1E00895C6
:10163000C0C0672F782F8827B85F39F0B93FCCF347
:10164000869577956795B395D9F73EF490958095F3
:10165000709561957F4F8F4F9F4F0895E89409C013
:1016600097FB3EF490958095709561957F4F8F4FD5
:101670009F4F9923A9F0F92F96E9BB279395F695EB
:10168000879577956795B795F111F8CFFAF4BB0F69
:1016900011F460FF1BC06F5F7F4F8F4F9F4F16C0CD
:1016A000882311F096E911C0772321F09EE8872F57
:1016B000762F05C0662371F096E8862F70E060E013
:1016C0002AF09A95660F771F881FDAF7880F96958C
:1016D000879597F90895990F0008550FAA0BE0E830
:1016E000FEEF16161706E807F907C0F012161306E4
:1016F000E407F50798F0621B730B840B950B39F424
:101700000A2661F0232B242B252B21F408950A2689
:1017100009F4A140A6958FEF811D811D089597F9C9
:101720009F6780E870E060E008959FEF80EC089587
:1017300000240A94161617061806090608950024B0
:101740000A9412161306140605060895092E03942A
:10175000000C11F4882352F0BB0F40F4BF2B11F49E
:1017600060FF04C06F5F7F4F8F4F9F4F089557FDFD
:101770009058440F551F59F05F3F71F04795880FFF
:1017800097FB991F61F09F3F79F087950895121696
:1017900013061406551FF2CF4695F1DF08C0161642
:1017A00017061806991FF1CF8695710561050894F3
:1017B0000895E894BB2766277727CB0197F908950A
:1017C0008ADF08F48FEF08950BD0C0CFB1DF28F087
:1017D000B6DF18F0952309F0A2CFA7CF1124EACFE6
:1017E000C6DFA0F3959FD1F3950F50E0551F629F80
:1017F000F001729FBB27F00DB11D639FAA27F00D6A
:10180000B11DAA1F649F6627B00DA11D661F829F90
:101810002227B00DA11D621F739FB00DA11D621F75
:10182000839FA00D611D221F749F3327A00D611D92
:10183000231F849F600D211D822F762F6A2F112474
:101840009F5750408AF0E1F088234AF0EE0FFF1FC7
:10185000BB1F661F771F881F91505040A9F79E3FFE
:10186000510570F05CCFA6CF5F3FECF3983EDCF300
:10187000869577956795B795F795E7959F5FC1F73B
:10188000FE2B880F911D9695879597F9089523DF74
:10189000880B990B0895A1E21A2EAA1BBB1BFD0110
:1018A0000DC0AA1FBB1FEE1FFF1FA217B307E4073F
:1018B000F50720F0A21BB30BE40BF50B661F771F97
:1018C000881F991F1A9469F7609570958095909577
:1018D0009B01AC01BD01CF010895EE0FFF1F0590E4
:1018E000F491E02D19940790F691E02D1994F89455
:0218F000FFCF28
:1018F2002C00564D4450565F317C315F564D44505A
:10190200560D0A00564D4450455F003A323A005F88
:10191200564D44504500564D4450435F005F564D6E
:101922004450430D0A004572726F723A204174743A
:10193200656D707420746F20736574206120726508
:1019420061642D6F6E6C79207661726961626C657B
:10195200206F7220646174612074797065206E6FEB
:101962007420737570706F727465640D0A000000E4
:101972000000C3063D08180631062306A2066E6162
:0C1982006E00696E66006F7666002E0035
:00000001FF
