:100000000C9454000C9415040C9442040C947C0041
:100010000C947C000C947C000C947C000C947C0070
:100020000C947C000C947C000C947C000C947C0060
:100030000C947C000C9463010C947C000C947C0068
:100040000C946F040C947C000C947E060C94B00607
:100050000C947C000C947C000C947C000C947C0030
:100060000C947C000C947C00010204081020408059
:1000700001020408102001020408102004040404F2
:100080000404040402020202020203030303030342
:1000900000000000250028002B00000000002400C4
:1000A00027002A00D403E00611241FBECFEFD8E0BA
:1000B000DEBFCDBF11E0A0E0B1E0EAE3F7E102C0AE
:1000C00005900D92AE39B107D9F722E0AEE9B1E063
:1000D00001C01D92A53AB207E1F710E0C8EAD0E0EE
:1000E00004C02297FE010E94970BC43AD107C9F7BA
:1000F0000E9424070C949B0B0C940000CF92DF927B
:10010000EF92FF928FB78093A201F89480918400C0
:1001100090918500A0E0B0E08093A3019093A401AA
:10012000A093A501B093A6018091A2018FBFC090BA
:10013000A301D090A401E090A501F090A6018091C8
:10014000A7019091A801A091A901B091AA017727D8
:1001500066276C0D7D1D8E1D9F1D0E94560A2091E5
:100160009E0130919F014091A0015091A1010E94F8
:10017000540920E034E244E75BE40E94BD09609347
:100180009E0170939F018093A0019093A1012AE0AA
:1001900030E0B701A60188E092E00E94430860E0E9
:1001A00071E088E092E00E9471074091A7015091B0
:1001B000A8016091A9017091AA012AE030E088E0CD
:1001C00092E00E94430860E071E088E092E00E94C3
:1001D000710740919E0150919F016091A001709123
:1001E000A10122E030E088E092E00E9442091092F2
:1001F000A7011092A8011092A9011092AA01FF90E4
:10020000EF90DF90CF90089548EB5BE060E070E006
:1002100083EB91E00E941D0320E835E240E050E0CE
:1002200068E072E083EB91E00E94310361E083EBD0
:1002300091E00E94E7028823A1F062E071E08091E2
:10024000F5019091F6010E9471074AE050E060E0EC
:1002500070E083EB91E00E944B0283EB91E00E94FF
:100260001C0341E060E083EB91E00E94B80326E0CC
:1002700040E855E260E070E088E092E00E941C06F1
:10028000F8941092800010928100109285001092D4
:100290008400809180008093800080918100816043
:1002A0008093810080916F00816080936F007894CB
:1002B00062E082E00E94000543E050E06EE770E0FB
:1002C00080E00C94F5031F920F920FB60F92112449
:1002D0008F939F93AF93BF938091A7019091A801B3
:1002E000A091A901B091AA010196A11DB11D809311
:1002F000A7019093A801A093A901B093AA01BF916F
:10030000AF919F918F910F900FBE0F901F901895F6
:10031000CF92DF92EF92FF920F931F930E94B90446
:10032000672B682B692B41F40E94B9046230710578
:100330008105910508F481C083EB91E00E944E0293
:100340006093AB017093AC018093AD019093AE01CB
:100350000091AF011091B0012091B1013091B20133
:10036000601771078207930740F46093AF017093A1
:10037000B0018093B1019093B2010091AF0110914F
:10038000B0012091B1013091B2016B017C01C01A22
:10039000D10AE20AF30A970186010A3F11052105F5
:1003A000310508F44AC06093AF017093B0018093A7
:1003B000B1019093B20144EF51E060E070E083EB53
:1003C00091E00E94500261E083EB91E00E94E7021D
:1003D000882309F161E083EB91E00E946C0264E103
:1003E00071E08091F5019091F6010E9471070E94E1
:1003F000B904AB01BC012AE030E08091F501909195
:10040000F6010E94430883EB91E00E94D20283EB45
:1004100091E00E941C0345E050E060E070E083EB57
:1004200091E00E944B0283EB91E01F910F91FF90AE
:10043000EF90DF90CF900C94DB021F910F91FF9013
:10044000EF90DF90CF9008958F929F92AF92BF92DE
:10045000CF92DF92EF92FF926A017B010E94B90472
:100460004B015C01C60ED71EE81EF91E0E94B9049E
:10047000681579058A059B0528F0C616D706E80693
:10048000F906A0F7FF90EF90DF90CF90BF90AF906C
:100490009F908F90089521E00C9424020C94B9044D
:1004A000CF93DF93EC014E875F87688B798B1A8A35
:1004B0001B8A1C8A1D8A4E815F81688579854A87DF
:1004C0005B876C877D870E94B9046E837F838887F2
:1004D0009987DF91CF910895BF92CF92DF92EF92EB
:1004E000FF920F931F93CF93DF938C01B62E0E9440
:1004F000B9046B017C01E801CE5BDF4F66E171E07E
:10050000888199810E9471074AE050E06B2D8881B3
:1005100099810E9450086DE171E0888199810E9463
:1005200071072AE030E0B701A601888199810E9415
:1005300043086FE171E0888199810E947107F80199
:1005400086819781A085B185B701A601481B590B0B
:100550006A0B7B0B2AE030E0888199810E94430876
:100560006FE171E0888199810E947107F8014681ED
:1005700057816085718582859385A485B585481BE3
:10058000590B6A0B7B0B2AE030E088819981DF915F
:10059000CF911F910F91FF90EF90DF90CF90BF9080
:1005A0000C9443088E5B9F4F61E271E0FC018081F7
:1005B00091810C948E07CF93DF93EC010E94B904D4
:1005C0006E837F8388879987DF91CF910895CF923B
:1005D000DF92EF92FF92CF93DF93EC0161111EC087
:1005E0000E94B904CA80DB80EC80FD806C197D0913
:1005F0008E099F09623371058105910578F422E324
:10060000C22ED12CE12CF12CC61AD70AE80AF90A1D
:1006100021E0B701A601CE010E9424020E94B90484
:100620006A837B838C839D8381E0DF91CF91FF90F0
:10063000EF90DF90CF9008950895FC01EC5BFF4FA1
:100640001082118212821382FC01128213821482A0
:100650001582411551056105710511F00C944B028D
:100660000895FB01BA01A9018E5B9F4FDC01ED9358
:10067000FC9326E0CF010C941C068E5B9F4FDC019F
:100680008D919C91DC01ED91FC910680F781E02D2C
:10069000099508958E5B9F4FDC018D919C91DC0143
:1006A000ED91FC910480F581E02D09950895FF926C
:1006B0000F931F93CF93DF93EC01F62E0E94B904A2
:1006C0006A837B838C839D838E010E5B1F4F68E260
:1006D00071E0F801808191810E9471074AE050E049
:1006E0006F2DF801808191810E9450086FE271E0C6
:1006F000F801808191810E94710742E350E060E03F
:1007000070E0CE01DF91CF911F910F91FF900C947B
:100710004B021F93CF93DF93EC01162F8E89882312
:1007200011F1CE010E944A03811102C085E61CC06E
:10073000CE010E944A038823C9F3CE010E943D03E3
:10074000883689F048F4883569F0833689F7612F57
:10075000CE010E94570307C0813729F0863741F741
:1007600086E702C01E8A83E6DF91CF911F9108952C
:100770001F93CF93DF93EC01142F611105C01E8BE3
:10078000DF91CF911F91089581E08E8B60E0CE01C3
:100790000E948903833699F341E050E060E070E005
:1007A000CE010E944B02F2CF1092B9011092BA0111
:1007B0001092BB011092BC011092BD011092BE01BB
:1007C0001092BF011092C0011092C1011092C2019B
:1007D0001092C3011092C4011092C5011092C6017B
:1007E0001092C7011092C80108958230E8F4E82FF2
:1007F000F0E0EE0FFF1FE550FE4F71836083813004
:1008000041F0809169008C7F842B80936900E89A85
:10081000089580916900440F551F440F551F837F31
:10082000842B80936900E99A08951F920F920FB666
:100830000F9211242F933F934F935F936F937F9366
:100840008F939F93AF93BF93EF93FF938091FB019F
:100850009091FC01892B29F0E091FB01F091FC01C2
:100860000995FF91EF91BF91AF919F918F917F91EA
:100870006F915F914F913F912F910F900FBE0F900D
:100880001F9018951F920F920FB60F9211242F935D
:100890003F934F935F936F937F938F939F93AF9308
:1008A000BF93EF93FF938091FD019091FE01892BFF
:1008B00029F0E091FD01F091FE010995FF91EF9182
:1008C000BF91AF919F918F917F916F915F914F9168
:1008D0003F912F910F900FBE0F901F9018951F9270
:1008E0000F920FB60F9211242F933F938F939F93E4
:1008F000AF93BF938091000290910102A0910202F8
:10090000B09103023091FF0123E0230F2D3720F433
:100910000196A11DB11D05C026E8230F0296A11D59
:10092000B11D2093FF018093000290930102A093D8
:100930000202B09303028091040290910502A091FB
:100940000602B09107020196A11DB11D8093040219
:1009500090930502A0930602B0930702BF91AF9156
:100960009F918F913F912F910F900FBE0F901F90ED
:1009700018952FB7F8946091000270910102809150
:100980000202909103022FBF0895789484B582608B
:1009900084BD84B5816084BD85B5826085BD85B523
:1009A000816085BDEEE6F0E0808181608083E1E8D2
:1009B000F0E010828081826080838081816080830A
:1009C000E0E8F0E0808181608083E1EBF0E080810D
:1009D00084608083E0EBF0E0808181608083EAE7DF
:1009E000F0E0808184608083808182608083808168
:1009F000816080838081806880831092C100089527
:100A0000CF93DF9390E0FC01E859FF4F2491FC0164
:100A1000E458FF4F8491882349F190E0880F991F93
:100A2000FC01E656FF4FA591B49180579F4FFC0102
:100A3000C591D4919FB7611108C0F8948C9120950D
:100A400082238C93888182230AC0623051F4F89407
:100A50008C91322F309583238C938881822B8883CD
:100A600004C0F8948C91822B8C939FBFDF91CF911F
:100A70000895FC01818D228D90E0805C9F4F821B48
:100A800091098F7399270895FC01918D828D981794
:100A900031F0828DE80FF11D858D90E008958FEF84
:100AA0009FEF0895FC01918D828D981761F0828DE2
:100AB000DF01A80FB11D5D968C91928D9F5F9F7392
:100AC000928F90E008958FEF9FEF089586ED96E066
:100AD000892B49F080E090E0892B29F00E94D6060E
:100AE00081110C9400000895FC01848DDF01A80F92
:100AF000B11DA35ABF4F2C91848D90E001968F7346
:100B00009927848FA689B7892C93A089B1898C9164
:100B100080648C93938D848D981306C00288F3892A
:100B2000E02D80818F7D80830895CF93DF93EC014A
:100B3000888D8823C9F0EA89FB89808185FD05C0FD
:100B4000A889B9898C9186FD0FC00FB607FCF5CF37
:100B5000808185FFF2CFA889B9898C9185FFEDCF7F
:100B6000CE010E947405E7CFDF91CF910895CF9217
:100B7000DF92FF920F931F93CF93DF931F92CDB716
:100B8000DEB76C01DC015B969C915B975C968C9167
:100B90005C97981307C05096ED91FC915197808116
:100BA00085FD32C0F601038D10E00F5F1F4F0F73FC
:100BB0001127F02EF601848DF81211C00FB607FC34
:100BC000F9CFD6015096ED91FC915197808185FF28
:100BD000F1CFC60169830E9474056981EBCF838DD3
:100BE000E80FF11DE35AFF4F6083D6015B960C932B
:100BF0005B975296ED91FC91539780818062808340
:100C000081E058968C930DC0D6015696ED91FC91DB
:100C1000579760835096ED91FC9151978081806445
:100C2000808381E090E00F90DF91CF911F910F9131
:100C3000FF90DF90CF900895BF92CF92DF92EF9216
:100C4000FF92CF93DF93EC016A017B01B22EE8891A
:100C5000F98982E08083411581EE580761057105AD
:100C6000A1F060E079E08DE390E0A70196010E9499
:100C7000730B215031094109510956954795379514
:100C80002795211580E1380798F0E889F9891082C5
:100C900060E874E88EE190E0A70196010E94730B72
:100CA00021503109410951095695479537952795A6
:100CB000EC85FD853083EE85FF852083188EEC89D9
:100CC000FD89B082EA89FB89808180618083EA891D
:100CD000FB89808188608083EA89FB8980818068C4
:100CE0008083EA89FB8980818F7D8083DF91CF912A
:100CF000FF90EF90DF90CF90BF9008951F920F92DA
:100D00000FB60F9211242F938F939F93EF93FF931E
:100D1000E0911802F09119028081E0911E02F09199
:100D20001F0282FD12C09081809121028F5F8F731C
:100D300020912202821751F0E0912102F0E0E85F59
:100D4000FD4F958F8093210201C08081FF91EF912B
:100D50009F918F912F910F900FBE0F901F9018951C
:100D60001F920F920FB60F9211242F933F934F9320
:100D70005F936F937F938F939F93AF93BF93EF9303
:100D8000FF9388E092E00E947405FF91EF91BF917C
:100D9000AF919F918F917F916F915F914F913F9113
:100DA0002F910F900FBE0F901F90189588E092E042
:100DB0000E94390521E0892B09F420E0822F089553
:100DC00010920B0210920A0288EE93E0A0E0B0E0CD
:100DD00080930C0290930D02A0930E02B0930F0229
:100DE00084E891E0909309028093080285EC90E0FA
:100DF000909315028093140284EC90E09093170274
:100E00008093160280EC90E0909319028093180270
:100E100081EC90E090931B0280931A0282EC90E0A8
:100E200090931D0280931C0286EC90E090931F0229
:100E300080931E021092210210922202109223022D
:100E400010922402089508950E94C5040E94230769
:100E50000E940401C6E6D5E00E9488012097E1F3D4
:100E60000E946605F9CFCF92DF92EF92FF920F9327
:100E70001F93CF93DF936C017A01EB01E60EF71E0F
:100E800000E010E0CE15DF0561F06991D601ED912B
:100E9000FC910190F081E02DC6010995080F191F02
:100EA000F1CFC801DF91CF911F910F91FF90EF908B
:100EB000DF90CF9008956115710581F0DB010D90F1
:100EC0000020E9F7AD0141505109461B570BDC01E9
:100ED000ED91FC910280F381E02D099480E090E097
:100EE00008950C945B07DC01ED91FC910190F08179
:100EF000E02D09940F931F93CF93DF93EC016DE0E6
:100F00000E9473078C016AE0CE010E947307800F74
:100F1000911FDF91CF911F910F9108950F931F9310
:100F2000CF93DF93EC010E945B078C01CE010E94FE
:100F30007A07800F911FDF91CF911F910F91089534
:100F40008F929F92AF92BF92CF92DF92EF92FF92D9
:100F50000F931F93CF93DF93CDB7DEB7A1970FB653
:100F6000F894DEBF0FBECDBF7C01C42EE52FCB01B0
:100F7000D22E19A221E02D1510F02AE0D22E8E01DA
:100F80000F5D1F4F8D2C912CA12CB12C6C2D7E2F21
:100F9000A50194010E94730B8C2DD29E80191124FF
:100FA000015011098A3014F4805D01C0895CF80198
:100FB0008083211531054105510521F0C22EE32F13
:100FC000CA01E4CFB801C7010E945B07A1960FB622
:100FD000F894DEBF0FBECDBFDF91CF911F910F916F
:100FE000FF90EF90DF90CF90BF90AF909F908F9049
:100FF0000895CF92DF92EF92FF920F931F93CF93BA
:10100000DF93EC016A017B012115310579F4E88158
:10101000F9810190F081E02D642FDF91CF911F9134
:101020000F91FF90EF90DF90CF9009942A30310517
:10103000E9F477FF1AC06DE20E9473078C01442720
:101040005527BA014C195D096E097F092AE0CE01C6
:101050000E94A007800F911FDF91CF911F910F91E8
:10106000FF90EF90DF90CF9008952AE0B701A6019E
:10107000CE01DF91CF911F910F91FF90EF90DF9004
:10108000CF900C94A0072115310541F4DC01ED91BE
:10109000FC910190F081E02D642F09940C94A0073D
:1010A0009A01462F50E060E070E00C9443084F92A4
:1010B0005F926F927F928F929F92AF92BF92CF92E8
:1010C000DF92EF92FF920F931F93CF93DF93EC0188
:1010D0006A017B01B22E9A01AB01C701B6010E94E1
:1010E0006F0B882319F060E971E027C026013701F2
:1010F000E89477F82FEF3FEF4FE75FE7C301B201C6
:101100000E946F0B81110DC02FEF3FEF4FE75FE79C
:10111000C301B2010E94B90918161CF464E971E018
:101120000CC02FEF3FEF4FE75FE4C701B6010E940D
:10113000080B1816ACF468E971E0CE01DF91CF918D
:101140001F910F91FF90EF90DF90CF90BF90AF90E5
:101150009F908F907F906F905F904F900C945B0763
:101160002FEF3FEF4FE75FECC701B6010E94B909CF
:1011700087FDE1CF20E030E0A901C701B6010E9460
:10118000B90987FF0AC06DE2CE010E9473078C0186
:10119000F7FAF094F7F8F09402C000E010E0A12C08
:1011A00060E070E080E09FE3AB1441F020E030E0CD
:1011B00040E251E40E94BD09A394F6CF9B01AC012B
:1011C000C701B6010E9455096B017C010E942A0AE1
:1011D0002B013C010E94560A9B01AC01C701B601DC
:1011E0000E9454096B017C012AE0B301A201CE01E7
:1011F0000E94A007080F191FBB2039F06CE971E0AD
:10120000CE010E945B07080F191F7B2C772041F14C
:1012100020E030E040E251E4C701B6010E940C0B2F
:101220006B017C010E94250A4B01AA2497FCA09423
:10123000BA2C2AE030E0B501A401CE010E94F907E2
:10124000080F191FC501B4010E94580A9B01AC0187
:10125000C701B6010E9454096B017C017A94D6CF74
:10126000C801DF91CF911F910F91FF90EF90DF9018
:10127000CF90BF90AF909F908F907F906F905F9036
:101280004F9008950F931F93CF93DF93EC010E942B
:1012900057088C01CE010E947A07800F911FDF91C1
:1012A000CF911F910F9108955058BB27AA270ED0B8
:1012B00075C166D130F06BD120F031F49F3F11F44D
:1012C0001EF45BC10EF4E095E7FB51C1E92F77D125
:1012D00080F3BA17620773078407950718F071F453
:1012E0009EF58FC10EF4E0950B2EBA2FA02D0B01A9
:1012F000B90190010C01CA01A0011124FF27591B5B
:1013000099F0593F50F4503E68F11A16F040A22F60
:10131000232F342F4427585FF3CF469537952795D1
:10132000A795F0405395C9F77EF41F16BA0B620BD0
:10133000730B840BBAF09150A1F0FF0FBB1F661F17
:10134000771F881FC2F70EC0BA0F621F731F841F5A
:1013500048F4879577956795B795F7959E3F08F080
:10136000B3CF9395880F08F09927EE0F979587953F
:101370000895D9D008F481E008950CD00FC107D1A9
:1013800040F0FED030F021F45F3F19F0F0C0511171
:1013900039C1F3C014D198F39923C9F35523B1F39C
:1013A000951B550BBB27AA2762177307840738F0D4
:1013B0009F5F5F4F220F331F441FAA1FA9F333D033
:1013C0000E2E3AF0E0E830D091505040E695001CE7
:1013D000CAF729D0FE2F27D0660F771F881FBB1FA3
:1013E000261737074807AB07B0E809F0BB0B802D7D
:1013F000BF01FF2793585F4F2AF09E3F510568F0C9
:10140000B6C000C15F3FECF3983EDCF3869577955C
:101410006795B795F7959F5FC9F7880F911D9695CA
:10142000879597F90895E1E0660F771F881FBB1F26
:10143000621773078407BA0720F0621B730B840BD3
:10144000BA0BEE1F88F7E095089504D06894B111A7
:10145000D9C00895BCD088F09F5790F0B92F992734
:10146000B751A0F0D1F0660F771F881F991F1AF0AF
:10147000BA95C9F712C0B13081F0C3D0B1E0089578
:10148000C0C0672F782F8827B85F39F0B93FCCF3F9
:10149000869577956795B395D9F73EF490958095A5
:1014A000709561957F4F8F4F9F4F0895E89409C0C5
:1014B00097FB3EF490958095709561957F4F8F4F87
:1014C0009F4F9923A9F0F92F96E9BB279395F6959D
:1014D000879577956795B795F111F8CFFAF4BB0F1B
:1014E00011F460FF1BC06F5F7F4F8F4F9F4F16C07F
:1014F000882311F096E911C0772321F09EE8872F09
:10150000762F05C0662371F096E8862F70E060E0C4
:101510002AF09A95660F771F881FDAF7880F96953D
:10152000879597F90895990F0008550FAA0BE0E8E1
:10153000FEEF16161706E807F907C0F01216130695
:10154000E407F50798F0621B730B840B950B39F4D5
:101550000A2661F0232B242B252B21F408950A263B
:1015600009F4A140A6958FEF811D811D089597F97B
:101570009F6780E870E060E008959FEF80EC089539
:1015800000240A9416161706180609060895002462
:101590000A9412161306140605060895092E0394DC
:1015A000000C11F4882352F0BB0F40F4BF2B11F450
:1015B00060FF04C06F5F7F4F8F4F9F4F089557FDAF
:1015C0009058440F551F59F05F3F71F04795880FB1
:1015D00097FB991F61F09F3F79F087950895121648
:1015E00013061406551FF2CF4695F1DF08C01616F4
:1015F00017061806991FF1CF8695710561050894A5
:101600000895E894BB2766277727CB0197F90895BB
:101610008ADF08F48FEF08950BD0C0CFB1DF28F038
:10162000B6DF18F0952309F0A2CFA7CF1124EACF97
:10163000C6DFA0F3959FD1F3950F50E0551F629F31
:10164000F001729FBB27F00DB11D639FAA27F00D1B
:10165000B11DAA1F649F6627B00DA11D661F829F42
:101660002227B00DA11D621F739FB00DA11D621F27
:10167000839FA00D611D221F749F3327A00D611D44
:10168000231F849F600D211D822F762F6A2F112426
:101690009F5750408AF0E1F088234AF0EE0FFF1F79
:1016A000BB1F661F771F881F91505040A9F79E3FB0
:1016B000510570F05CCFA6CF5F3FECF3983EDCF3B2
:1016C000869577956795B795F795E7959F5FC1F7ED
:1016D000FE2B880F911D9695879597F9089523DF26
:1016E000880B990B0895A1E21A2EAA1BBB1BFD01C2
:1016F0000DC0AA1FBB1FEE1FFF1FA217B307E407F1
:10170000F50720F0A21BB30BE40BF50B661F771F48
:10171000881F991F1A9469F7609570958095909528
:101720009B01AC01BD01CF010895EE0FFF1F059095
:0A173000F491E02D0994F894FFCF26
:10173A002C00564D4450565F317C315F564D445013
:10174A00560D0A007C00564D4450455F003A323A25
:10175A00005F564D44504500564D4450435F005F6C
:10176A00564D4450430D0A004572726F723A204139
:10177A007474656D707420746F20736574206120B1
:10178A00726561642D6F6E6C79207661726961622F
:10179A006C65206F722064617461207479706520B1
:1017AA006E6F7420737570706F727465640D0A00C1
:1017BA0000000000B70533073905520544059505B1
:0E17CA006E616E00696E66006F7666002E001E
:107E0000112484B714BE81FFF0D085E080938100F7
:107E100082E08093C00088E18093C10086E0809377
:107E2000C20080E18093C4008EE0C9D0259A86E02C
:107E300020E33CEF91E0309385002093840096BBD3
:107E4000B09BFECF1D9AA8958150A9F7CC24DD24C4
:107E500088248394B5E0AB2EA1E19A2EF3E0BF2EE7
:107E6000A2D0813461F49FD0082FAFD0023811F036
:107E7000013811F484E001C083E08DD089C08234E0
:107E800011F484E103C0853419F485E0A6D080C0E4
:107E9000853579F488D0E82EFF2485D0082F10E0AE
:107EA000102F00270E291F29000F111F8ED06801E7
:107EB0006FC0863521F484E090D080E0DECF843638
:107EC00009F040C070D06FD0082F6DD080E0C81688
:107ED00080E7D80618F4F601B7BEE895C0E0D1E017
:107EE00062D089930C17E1F7F0E0CF16F0E7DF06D8
:107EF00018F0F601B7BEE89568D007B600FCFDCFD4
:107F0000A601A0E0B1E02C9130E011968C91119780
:107F100090E0982F8827822B932B1296FA010C0160
:107F200087BEE89511244E5F5F4FF1E0A038BF0790
:107F300051F7F601A7BEE89507B600FCFDCF97BE46
:107F4000E89526C08437B1F42ED02DD0F82E2BD052
:107F50003CD0F601EF2C8F010F5F1F4F84911BD097
:107F6000EA94F801C1F70894C11CD11CFA94CF0C13
:107F7000D11C0EC0853739F428D08EE10CD085E9AC
:107F80000AD08FE07ACF813511F488E018D01DD067
:107F900080E101D065CF982F8091C00085FFFCCF94
:107FA0009093C60008958091C00087FFFCCF809118
:107FB000C00084FD01C0A8958091C6000895E0E648
:107FC000F0E098E1908380830895EDDF803219F02E
:107FD00088E0F5DFFFCF84E1DECF1F93182FE3DFCA
:107FE0001150E9F7F2DF1F91089580E0E8DFEE27F6
:047FF000FF270994CA
:027FFE00040479
:0400000300007E007B
:00000001FF