:10000000DAC000009CC30000CBC30000FAC30000AC
:1000100029C4000058C4000087C40000B6C4000012
:10002000E5C40000F8C00000F6C00000F4C0000005
:10003000F2C00000F0C00000EEC00000ECC0000004
:10004000EAC00000E8C00000E6C00000E4C0000014
:10005000BAC10000E0C00000DEC00000F8C400002B
:10006000DAC0000054C7000088C70000D4C00000F8
:10007000D2C00000D0C00000CEC00000CCC0000044
:10008000CAC00000C8C00000C6C00000C4C0000054
:10009000C2C00000C0C00000BEC00000BCC0000064
:1000A000BAC00000B8C00000B6C00000B4C0000074
:1000B000B2C00000B0C00000AEC00000ACC0000084
:1000C000AAC00000A8C00000A6C00000A4C0000094
:1000D000A2C00000A0C000009EC000009CC00000A4
:1000E0009AC00000790343034B035703640385035D
:1000F00092030102102020080810204010204080A8
:1001000002010201080402010102040810204080DB
:100110008040201008040201800402018040201069
:1001200008040201080402010102040810204080B2
:100130000102040810204080050505050705080890
:100140000808020202020A0A080804040404010161
:100150000101010101010303030303030303040776
:1001600007070C0C0C0C0C0C0C0C0202020206060D
:100170000606060606060B0B0B0B0B0B0B0B000003
:100180002200250028002B002E003100340002013F
:100190000000050108010B010000210024002700D8
:1001A0002A002D0030003300010100000401070186
:1001B0000A010D03EF0711241FBECFEFD1E2DEBF0E
:1001C000CDBF00E00CBF12E0A0E0B2E0E2EFF8E14A
:1001D00000E00BBF02C007900D92AC39B107D9F710
:1001E00023E0ACE9B2E001C01D92A73AB207E1F703
:1001F00011E0C6EBD1E000E006C022970109FE0144
:100200000BBF0E94730CC23BD10780E00807A9F71F
:100210002AD70C94770CF4CECF92DF92EF92FF9214
:100220008FB78093A002F89480918400909185000C
:10023000A0E0B0E08093A1029093A202A093A30259
:10024000B093A4028091A0028FBFC090A102D09071
:10025000A202E090A302F090A4028091A5029091E6
:10026000A602A091A702B091A802772766276C0D7D
:100270007D1D8E1D9F1D0E942E0B20919C02309192
:100280009D0240919E0250919F020E942C0A20E004
:1002900034E244E75BE40E94950A60939C02709309
:1002A0009D0280939E0290939F022AE030E0B70166
:1002B000A6018AE093E0D7D760E072E08AE093E09D
:1002C0001AD74091A5025091A6026091A7027091A1
:1002D000A8022AE030E08AE093E0C5D760E072E04F
:1002E0008AE093E008D740919C0250919D02609172
:1002F0009E0270919F0222E030E08AE093E00E942B
:100300001C0A1092A5021092A6021092A702109247
:10031000A802FF90EF90DF90CF90089548EB5BE04C
:1003200060E070E089EA92E0CED020E835E240E07B
:1003300050E06AE073E089EA92E0D8D061E089EAAF
:1003400092E08ED0882389F062E072E08091EB0227
:100350009091EC02D0D64AE050E060E070E089EA8B
:1003600092E07CD089EA92E0ADD041E060E089EA99
:1003700092E039D126E040E855E260E070E08AE0A2
:1003800093E065D5F894109280001092810010924D
:10039000850010928400809180008093800080917D
:1003A000810081608093810080916F0081608093E3
:1003B0006F00789462E082E002D443E050E06CE0A9
:1003C00071E080E04BC11F920F920FB60F92112483
:1003D0008F939F93AF93BF938091A5029091A602B4
:1003E000A091A702B091A8020196A11DB11D809312
:1003F000A5029093A602A093A702B093A802BF9172
:10040000AF919F918F910F900FBE0F901F901895F5
:1004100008958F929F92AF92BF92CF92DF92EF9208
:10042000FF926A017B015DD34B015C01C60ED71EB2
:10043000E81EF91E56D3681579058A059B0528F034
:10044000C616D706E806F906A8F7FF90EF90DF90EA
:10045000CF90BF90AF909F908F90089521E0D9CF1B
:10046000CF92DF92EF92FF92CF93DF93EC01611175
:100470001CC037D3CA80DB80EC80FD806C197D09FD
:100480008E099F09643671058105910570F424E693
:10049000C22ED12CE12CF12CC61AD70AE80AF90A8F
:1004A00021E0B701A601CE01B4DF1BD36A837B83B1
:1004B0008C839D8381E0DF91CF91FF90EF90DF905F
:1004C000CF9008950895FC01EC5BFF4F10821182DC
:1004D00012821382FC01128213821482158241154A
:1004E00051056105710509F0B9CF0895FB01BA0105
:1004F000A9018E5B9F4FDC01ED93FC9326E0CF01B9
:10050000A6C48E5B9F4FDC018D919C91DC01ED9127
:10051000FC910680F781E02D199508958E5B9F4F21
:10052000DC018D919C91DC01ED91FC910480F581C1
:10053000E02D19950895FF920F931F93CF93DF93AA
:10054000EC01F62ECED26A837B838C839D838E0151
:100550000E5B1F4F66E272E0F80180819181CBD57E
:100560004AE050E06F2DF8018081918188D66DE2DC
:1005700072E0F80180819181BED542E350E060E0F5
:1005800070E0CE01DF91CF911F910F91FF9066CF68
:100590001F93CF93DF93EC01162F8E898823F1F000
:1005A000CE01BCDF811102C085E619C0CE01B6DFE5
:1005B0008823D1F3CE01A5DF883681F040F4883559
:1005C00061F0833699F7612FCE01B5DF07C081371F
:1005D00029F0863759F786E702C01E8A83E6DF9145
:1005E000CF911F9108951F93CF93DF93EC01142FA8
:1005F000611105C01E8BDF91CF911F91089581E09D
:100600008E8B60E0CE01C4DF8336A1F341E050E081
:1006100060E070E0CE0122DFF4CF1092AF021092C2
:10062000B0021092B1021092B2021092B302109274
:10063000B4021092B5021092B6021092B702109254
:10064000B8021092B9021092BA021092BB02109234
:10065000BC021092BD021092BE020895883008F0CC
:100660006DC0E82FF0E0EE0FFF1FEF50FD4F7183DC
:10067000608390E0FC013197E730F10590F5EE588A
:10068000FF4F0C946D0C809169008C7F842B8093BC
:100690006900E89A089580916900440F551F440F3E
:1006A000551F837F842B80936900E99A0895809178
:1006B000690074E0440F551F7A95E1F78F7C842B15
:1006C00080936900EA9A08958091690066E0440F7A
:1006D000551F6A95E1F78F73842B80936900EB9A1D
:1006E000089580916A008C7F842B80936A00EC9A35
:1006F000089580916A00440F551F440F551F837F52
:10070000842B80936A00ED9A089580916A0024E01A
:10071000440F551F2A95E1F78F7C842B80936A0044
:10072000EE9A089580916A0096E0440F551F9A95BD
:10073000E1F78F73842B80936A00EF9A08951F92DC
:100740000F920FB60F9211240BB60F922F933F9377
:100750004F935F936F937F938F939F93AF93BF93C9
:10076000EF93FF938091F5029091F602892B29F087
:10077000E091F502F091F6021995FF91EF91BF918A
:10078000AF919F918F917F916F915F914F913F9129
:100790002F910F900BBE0F900FBE0F901F901895CA
:1007A0001F920F920FB60F9211240BB60F922F9338
:1007B0003F934F935F936F937F938F939F93AF93E9
:1007C000BF93EF93FF938091F7029091F802892BEA
:1007D00029F0E091F702F091F8021995FF91EF915D
:1007E000BF91AF919F918F917F916F915F914F9149
:1007F0003F912F910F900BBE0F900FBE0F901F9047
:1008000018951F920F920FB60F9211240BB60F92EC
:100810002F933F934F935F936F937F938F939F9308
:10082000AF93BF93EF93FF938091F9029091FA02F7
:10083000892B29F0E091F902F091FA021995FF91C4
:10084000EF91BF91AF919F918F917F916F915F9148
:100850004F913F912F910F900BBE0F900FBE0F90B5
:100860001F9018951F920F920FB60F9211240BB67E
:100870000F922F933F934F935F936F937F938F9339
:100880009F93AF93BF93EF93FF938091FB0290915F
:10089000FC02892B29F0E091FB02F091FC021995F2
:1008A000FF91EF91BF91AF919F918F917F916F9148
:1008B0005F914F913F912F910F900BBE0F900FBE04
:1008C0000F901F9018951F920F920FB60F92112440
:1008D0000BB60F922F933F934F935F936F937F933A
:1008E0008F939F93AF93BF93EF93FF938091F10208
:1008F0009091F202892B29F0E091F102F091F2023D
:100900001995FF91EF91BF91AF919F918F917F9139
:100910006F915F914F913F912F910F900BBE0F9070
:100920000FBE0F901F9018951F920F920FB60F9247
:1009300011240BB60F922F933F934F935F936F93B6
:100940007F938F939F93AF93BF93EF93FF93809188
:10095000F3029091F402892B29F0E091F302F091D7
:10096000F4021995FF91EF91BF91AF919F918F91F3
:100970007F916F915F914F913F912F910F900BBE9F
:100980000F900FBE0F901F9018951F920F920FB6E9
:100990000F9211240BB60F922F933F934F935F93B7
:1009A0006F937F938F939F93AF93BF93EF93FF9337
:1009B0008091FD029091FE02892B29F0E091FD02C9
:1009C000F091FE021995FF91EF91BF91AF919F9128
:1009D0008F917F916F915F914F913F912F910F90E8
:1009E0000BBE0F900FBE0F901F9018951F920F9285
:1009F0000FB60F9211240BB60F922F933F934F9384
:100A00005F936F937F938F939F93AF93BF93EF9376
:100A1000FF938091FF0290910003892B29F0E091D0
:100A2000FF02F09100031995FF91EF91BF91AF91F3
:100A30009F918F917F916F915F914F913F912F91F6
:100A40000F900BBE0F900FBE0F901F9018951F9226
:100A50000F920FB60F9211242F933F938F939F9372
:100A6000AF93BF938091020390910303A09104037D
:100A7000B09105033091010323E0230F2D3720F4BB
:100A80000196A11DB11D05C026E8230F0296A11DE8
:100A9000B11D209301038093020390930303A0935D
:100AA0000403B09305038091060390910703A0917E
:100AB0000803B09109030196A11DB11D809306039F
:100AC00090930703A0930803B0930903BF91AF91DC
:100AD0009F918F913F912F910F900FBE0F901F907C
:100AE00018952FB7F89460910203709103038091D9
:100AF0000403909105032FBF0895789484B5826014
:100B000084BD84B5816084BD85B5826085BD85B5B1
:100B1000816085BDEEE6F0E0808181608083E1E860
:100B2000F0E0108280818260808380818160808398
:100B3000E0E8F0E0808181608083E1EBF0E080819B
:100B400084608083E0EBF0E0808181608083E1E974
:100B5000F0E0808182608083808181608083E0E931
:100B6000F0E0808181608083E1EAF0E08081826052
:100B70008083808181608083E0EAF0E08081816011
:100B80008083E1E2F1E08081826080838081816006
:100B90008083E0E2F1E0808181608083EAE7F0E039
:100BA0008081846080838081826080838081816095
:100BB00080838081806880831092C1000895CF93E4
:100BC000DF9390E0FC01EE50FF4F2491FC01E85CC4
:100BD000FE4F8491882349F190E0880F991FFC0112
:100BE000E856FE4FA591B49182589E4FFC01C591E5
:100BF000D4919FB7611108C0F8948C9120958223FD
:100C00008C93888182230AC0623051F4F8948C91CD
:100C1000322F309583238C938881822B888304C064
:100C2000F8948C91822B8C939FBFDF91CF91089584
:100C3000FC01818D228D90E0805C9F4F821B910989
:100C40008F7399270895FC01918D828D981731F04B
:100C5000828DE80FF11D858D90E008958FEF9FEF55
:100C60000895FC01918D828D981761F0828DDF01CE
:100C7000A80FB11D5D968C91928D9F5F9F73928F8F
:100C800090E008958FEF9FEF089586EE97E0892B0F
:100C900039F080E090E0892B19F098D1811125C0BE
:100CA00080E090E0892B41F080E090E0892B21F0FA
:100CB0000E94000081111CC080E090E0892B41F06F
:100CC00080E090E0892B21F00E940000811113C088
:100CD00080E090E0892BA1F080E090E0892B81F00A
:100CE0000E94000081110AC008950E940000D8CF20
:100CF0000E940000E1CF0E940000EACF0C940000A7
:100D00000895FC01848DDF01A80FB11DA35ABF4FC8
:100D10002C91848D90E001968F739927848FA689FA
:100D2000B7892C93A089B1898C9180648C93938D21
:100D3000848D981306C00288F389E02D80818F7D11
:100D400080830895CF93DF93EC01888D8823C1F0D1
:100D5000EA89FB89808185FD05C0A889B9898C91C4
:100D600086FD0EC00FB607FCF5CF808185FFF2CF60
:100D7000A889B9898C9185FFEDCFCE01C2DFE8CF7C
:100D8000DF91CF910895CF92DF92FF920F931F933F
:100D9000CF93DF931F92CDB7DEB76C01DC015B967A
:100DA0009C915B975C968C915C97981307C05096CA
:100DB000ED91FC915197808185FD31C0F601038D45
:100DC00010E00F5F1F4F0F731127F02EF601848D77
:100DD000F81210C00FB607FCF9CFD6015096ED916E
:100DE000FC915197808185FFF1CFC601698389DF2E
:100DF0006981ECCF838DE80FF11DE35AFF4F6083CB
:100E0000D6015B960C935B975296ED91FC915397AC
:100E100080818062808381E058968C930DC0D601DA
:100E20005696ED91FC91579760835096ED91FC9109
:100E3000519780818064808381E090E00F90DF9102
:100E4000CF911F910F91FF90DF90CF900895BF92A7
:100E5000CF92DF92EF92FF92CF93DF93EC016A0182
:100E60007B01B22EE889F98982E08083411581EE09
:100E700058076105710599F060E079E08DE390E035
:100E8000A701960108D5215031094109510956950C
:100E9000479537952795211580E1380790F0E88927
:100EA000F989108260E874E88EE190E0A70196016C
:100EB000F2D421503109410951095695479537958A
:100EC0002795EC85FD853083EE85FF852083188E80
:100ED000EC89FD89B082EA89FB8980818061808309
:100EE000EA89FB89808188608083EA89FB89808127
:100EF00080688083EA89FB8980818F7D8083DF9190
:100F0000CF91FF90EF90DF90CF90BF9008951F9208
:100F10000F920FB60F9211240BB60F922F938F934F
:100F20009F93EF93FF93E0911A03F0911B0380814D
:100F3000E0912003F091210382FD12C09081809105
:100F400023038F5F8F7320912403821751F0E09168
:100F50002303F0E0E65FFC4F958F8093230301C0ED
:100F60008081FF91EF919F918F912F910F900BBEF8
:100F70000F900FBE0F901F9018951F920F920FB6F3
:100F80000F9211240BB60F922F933F934F935F93C1
:100F90006F937F938F939F93AF93BF93EF93FF9341
:100FA0008AE093E0AEDEFF91EF91BF91AF919F9108
:100FB0008F917F916F915F914F913F912F910F9002
:100FC0000BBE0F900FBE0F901F9018958AE093E014
:100FD0002FDE21E0892B09F420E0822F0895109262
:100FE0000D0310920C0388EE93E0A0E0B0E0809334
:100FF0000E0390930F03A0931003B093110382E8A4
:1010000092E090930B0380930A0385EC90E0909319
:1010100017038093160384EC90E090931903809358
:10102000180380EC90E090931B0380931A0381ECEB
:1010300090E090931D0380931C0382EC90E09093CA
:101040001F0380931E0386EC90E09093210380930E
:101050002003109223031092240310922503109270
:1010600026030895089549DDFDDF58D9C5E4D6E08B
:10107000CFD92097E9F309DEFBCFCF92DF92EF9231
:10108000FF920F931F93CF93DF936C017A01EB01D3
:10109000E60EF71E00E010E0CE15DF0561F0699165
:1010A000D601ED91FC910190F081E02DC6011995DA
:1010B000080F191FF1CFC801DF91CF911F910F9138
:1010C000FF90EF90DF90CF9008956115710581F04A
:1010D000DB010D900020E9F7AD0141505109461B9D
:1010E000570BDC01ED91FC910280F381E02D199406
:1010F00080E090E00895E9CFDC01ED91FC91019052
:10110000F081E02D19940F931F93CF93DF93EC019F
:101110006DE0F2DF8C016AE0CE01EEDF800F911FFF
:10112000DF91CF911F910F9108958F929F92AF926F
:10113000BF92CF92DF92EF92FF920F931F93CF93C4
:10114000DF93CDB7DEB7A1970FB6F894DEBF0FBE21
:10115000CDBF7C01C42EE52FCB01D22E19A221E0F8
:101160002D1510F02AE0D22E8E010F5D1F4F8D2C11
:10117000912CA12CB12C6C2D7E2FA50194018BD329
:101180008C2DD29E80191124015011098A3014F43B
:10119000805D01C0895CF80180832115310541051E
:1011A000510521F0C22EE32FCA01E5CFB801C701D6
:1011B0008CDFA1960FB6F894DEBF0FBECDBFDF91D6
:1011C000CF911F910F91FF90EF90DF90CF90BF9044
:1011D000AF909F908F900895CF92DF92EF92FF9201
:1011E0000F931F93CF93DF93EC016A017B012115CD
:1011F000310579F4E881F9810190F081E02D642FC7
:10120000DF91CF911F910F91FF90EF90DF90CF90E2
:1012100019942A303105D9F477FF18C06DE26CDFDC
:101220008C0144275527BA014C195D096E097F09C5
:101230002AE0CE017ADF800F911FDF91CF911F91BD
:101240000F91FF90EF90DF90CF9008952AE0B701C3
:10125000A601CE01DF91CF911F910F91FF90EF90EA
:10126000DF90CF9062CF2115310541F4DC01ED9183
:10127000FC910190F081E02D642F199456CF9A01D2
:10128000462F50E060E070E0EECF4F925F926F9299
:101290007F928F929F92AF92BF92CF92DF92EF9206
:1012A000FF920F931F93CF93DF93EC016A017B01B1
:1012B000B22E9A01AB01C701B601E9D2882319F019
:1012C0006EE872E024C026013701E89477F82FEF2A
:1012D0003FEF4FE75FE7C301B201D9D281110CC0E4
:1012E0002FEF3FEF4FE75FE7C301B2011AD11816A6
:1012F0001CF462E972E00BC02FEF3FEF4FE75FE4B1
:10130000C701B6015DD21816A4F466E972E0CE01F9
:10131000DF91CF911F910F91FF90EF90DF90CF90D1
:10132000BF90AF909F908F907F906F905F904F9005
:10133000CCCE2FEF3FEF4FE75FECC701B601F1D006
:1013400087FDE3CF20E030E0A901C701B601E9D075
:1013500087FF09C06DE2CE01CFDE8C01F7FAF09471
:10136000F7F8F09402C000E010E0A12C60E070E01B
:1013700080E09FE3AB1439F020E030E040E251E43C
:10138000D4D0A394F7CF9B01AC01C701B60165D0BF
:101390006B017C0137D12B013C0160D19B01AC0179
:1013A000C701B60159D06B017C012AE0B301A2014B
:1013B000CE01BBDE080F191FBB2031F06AE972E0D5
:1013C000CE0183DE080F191F7B2C772019F120E056
:1013D00030E040E251E4C701B601F6D16B017C0177
:1013E0000CD14B01AA2497FCA094BA2C2AE030E03F
:1013F000B501A401CE01F0DE080F191FC501B4012B
:101400002FD19B01AC01C701B60126D06B017C0135
:101410007A94DBCFC801DF91CF911F910F91FF909C
:10142000EF90DF90CF90BF90AF909F908F907F9084
:101430006F905F904F9008950F931F93CF93DF931A
:10144000EC0123DF8C01CE015EDE800F911FDF9166
:10145000CF911F910F9108955058BB27AA270ED006
:1014600075C166D130F06BD120F031F49F3F11F49B
:101470001EF45BC10EF4E095E7FB51C1E92F77D173
:1014800080F3BA17620773078407950718F071F4A1
:101490009EF58FC10EF4E0950B2EBA2FA02D0B01F7
:1014A000B90190010C01CA01A0011124FF27591BA9
:1014B00099F0593F50F4503E68F11A16F040A22FAF
:1014C000232F342F4427585FF3CF46953795279520
:1014D000A795F0405395C9F77EF41F16BA0B620B1F
:1014E000730B840BBAF09150A1F0FF0FBB1F661F66
:1014F000771F881FC2F70EC0BA0F621F731F841FA9
:1015000048F4879577956795B795F7959E3F08F0CE
:10151000B3CF9395880F08F09927EE0F979587958D
:101520000895D9D008F481E008950CD00FC107D1F7
:1015300040F0FED030F021F45F3F19F0F0C05111BF
:1015400039C1F3C014D198F39923C9F35523B1F3EA
:10155000951B550BBB27AA2762177307840738F022
:101560009F5F5F4F220F331F441FAA1FA9F333D081
:101570000E2E3AF0E0E830D091505040E695001C35
:10158000CAF729D0FE2F27D0660F771F881FBB1FF1
:10159000261737074807AB07B0E809F0BB0B802DCB
:1015A000BF01FF2793585F4F2AF09E3F510568F017
:1015B000B6C000C15F3FECF3983EDCF386957795AB
:1015C0006795B795F7959F5FC9F7880F911D969519
:1015D000879597F90895E1E0660F771F881FBB1F75
:1015E000621773078407BA0720F0621B730B840B22
:1015F000BA0BEE1F88F7E095089504D06894B111F6
:10160000D9C00895BCD088F09F5790F0B92F992782
:10161000B751A0F0D1F0660F771F881F991F1AF0FD
:10162000BA95C9F712C0B13081F0C3D0B1E00895C6
:10163000C0C0672F782F8827B85F39F0B93FCCF347
:10164000869577956795B395D9F73EF490958095F3
:10165000709561957F4F8F4F9F4F0895E89409C013
:1016600097FB3EF490958095709561957F4F8F4FD5
:101670009F4F9923A9F0F92F96E9BB279395F695EB
:10168000879577956795B795F111F8CFFAF4BB0F69
:1016900011F460FF1BC06F5F7F4F8F4F9F4F16C0CD
:1016A000882311F096E911C0772321F09EE8872F57
:1016B000762F05C0662371F096E8862F70E060E013
:1016C0002AF09A95660F771F881FDAF7880F96958C
:1016D000879597F90895990F0008550FAA0BE0E830
:1016E000FEEF16161706E807F907C0F012161306E4
:1016F000E407F50798F0621B730B840B950B39F424
:101700000A2661F0232B242B252B21F408950A2689
:1017100009F4A140A6958FEF811D811D089597F9C9
:101720009F6780E870E060E008959FEF80EC089587
:1017300000240A94161617061806090608950024B0
:101740000A9412161306140605060895092E03942A
:10175000000C11F4882352F0BB0F40F4BF2B11F49E
:1017600060FF04C06F5F7F4F8F4F9F4F089557FDFD
:101770009058440F551F59F05F3F71F04795880FFF
:1017800097FB991F61F09F3F79F087950895121696
:1017900013061406551FF2CF4695F1DF08C0161642
:1017A00017061806991FF1CF8695710561050894F3
:1017B0000895E894BB2766277727CB0197F908950A
:1017C0008ADF08F48FEF08950BD0C0CFB1DF28F087
:1017D000B6DF18F0952309F0A2CFA7CF1124EACFE6
:1017E000C6DFA0F3959FD1F3950F50E0551F629F80
:1017F000F001729FBB27F00DB11D639FAA27F00D6A
:10180000B11DAA1F649F6627B00DA11D661F829F90
:101810002227B00DA11D621F739FB00DA11D621F75
:10182000839FA00D611D221F749F3327A00D611D92
:10183000231F849F600D211D822F762F6A2F112474
:101840009F5750408AF0E1F088234AF0EE0FFF1FC7
:10185000BB1F661F771F881F91505040A9F79E3FFE
:10186000510570F05CCFA6CF5F3FECF3983EDCF300
:10187000869577956795B795F795E7959F5FC1F73B
:10188000FE2B880F911D9695879597F9089523DF74
:10189000880B990B0895A1E21A2EAA1BBB1BFD0110
:1018A0000DC0AA1FBB1FEE1FFF1FA217B307E4073F
:1018B000F50720F0A21BB30BE40BF50B661F771F97
:1018C000881F991F1A9469F7609570958095909577
:1018D0009B01AC01BD01CF010895EE0FFF1F0590E4
:1018E000F491E02D19940790F691E02D1994F89455
:0218F000FFCF28
:1018F2002C00564D4450565F317C315F564D44505A
:10190200560D0A00564D4450455F003A323A005F88
:10191200564D44504500564D4450435F005F564D6E
:101922004450430D0A004572726F723A204174743A
:10193200656D707420746F20736574206120726508
:1019420061642D6F6E6C79207661726961626C657B
:10195200206F7220646174612074797065206E6FEB
:101962007420737570706F727465640D0A000000E4
:101972000000C3063D08180631062306A2066E6162
:0C1982006E00696E66006F7666002E0035
:020000023000CC
:10E000000D9489F10D94B2F10D94B2F10D94B2F129
:10E010000D94B2F10D94B2F10D94B2F10D94B2F1F0
:10E020000D94B2F10D94B2F10D94B2F10D94B2F1E0
:10E030000D94B2F10D94B2F10D94B2F10D94B2F1D0
:10E040000D94B2F10D94B2F10D94B2F10D94B2F1C0
:10E050000D94B2F10D94B2F10D94B2F10D94B2F1B0
:10E060000D94B2F10D94B2F10D94B2F10D94B2F1A0
:10E070000D94B2F10D94B2F10D94B2F10D94B2F190
:10E080000D94B2F10D94B2F10D94B2F10D94B2F180
:10E090000D94B2F10D94B2F10D94B2F10D94B2F170
:10E0A0000D94B2F10D94B2F10D94B2F10D94B2F160
:10E0B0000D94B2F10D94B2F10D94B2F10D94B2F150
:10E0C0000D94B2F10D94B2F10D94B2F10D94B2F140
:10E0D0000D94B2F10D94B2F10D94B2F10D94B2F130
:10E0E0000D94B2F141546D656761323536300041AF
:10E0F000726475696E6F206578706C6F72657220DE
:10E1000073746B3530305632206279204D4C530099
:10E11000426F6F746C6F616465723E004875683F52
:10E1200000436F6D70696C6564206F6E203D200048
:10E130004350552054797065202020203D20005FF9
:10E140005F4156525F415243485F5F3D2000415658
:10E1500052204C696243205665723D20004743437C
:10E160002056657273696F6E203D20004350552024
:10E1700049442020202020203D20004C6F7720663D
:10E18000757365202020203D20004869676820665F
:10E190007573652020203D200045787420667573D6
:10E1A00065202020203D20004C6F636B2066757336
:10E1B000652020203D20004D617220203720323024
:10E1C000313300312E362E3800342E332E350056A2
:10E1D00023202020414444522020206F7020636F70
:10E1E00064652020202020696E73747275637469E1
:10E1F0006F6E2061646472202020496E74657272B3
:10E20000757074006E6F20766563746F7200726A49
:10E210006D702020006A6D70200057686174207056
:10E220006F72743A00506F7274206E6F7420737541
:10E2300070706F72746564004D7573742062652030
:10E2400061206C6574746572002000577269747483
:10E25000696E672045450052656164696E672045B7
:10E26000450045452065727220636E743D00504F35
:10E27000525400303D5A65726F2061646472003FF1
:10E280003D43505520737461747300403D454550C3
:10E29000524F4D207465737400423D426C696E6B41
:10E2A000204C454400453D44756D70204545505215
:10E2B0004F4D00463D44756D7020464C415348001B
:10E2C000483D48656C70004C3D4C69737420492F83
:10E2D0004F20506F72747300513D51756974005234
:10E2E0003D44756D702052414D00563D73686F7707
:10E2F00020696E7465727275707420566563746FF0
:10E30000727300593D506F727420626C696E6B00BD
:10E310002A0011241FBECFEFD1E2DEBFCDBF01E046
:10E320000CBF12E0A0E0B2E0EEE1FDEF03E00BBFB6
:10E3300002C007900D92A030B107D9F712E0A0E01B
:10E34000B2E001C01D92AE30B107E1F70F9460F367
:10E350000D948DFE01E20EBF0FEF0DBF11241FBE05
:10E360000D9460F30D9400F020E030E040ED57E0B4
:10E3700005C0FA013197F1F72F5F3F4F2817390792
:10E38000C0F308959C01260F311DC901A0E0B0E043
:10E390002F5F3F4FABBFFC018791882361F08093D3
:10E3A000C6008091C00086FFFCCF8091C0008064D1
:10E3B0008093C000EACF08958DE08093C6008091DD
:10E3C000C00086FFFCCF8091C00080648093C000B5
:10E3D0008AE08093C6008091C00086FFFCCF8091C8
:10E3E000C00080648093C00008950F94C2F10F9420
:10E3F000DCF10895FC019081992359F09093C600B7
:10E400008091C00086FFFCCF8091C0008064809323
:10E41000C0003196992379F70895282F982F929567
:10E420009F70892F805D8A3308F0895F8093C600D2
:10E430008091C00086FFFCCF8091C00080648093F3
:10E44000C000822F8F70982F905D9A3308F0995FEB
:10E450009093C6008091C00086FFFCCF8091C000E1
:10E4600080648093C00008959C01FB01853691056E
:10E470001CF46330710594F0C90164E670E00F94F8
:10E480002EFE605D7F4F6093C6008091C00086FFC6
:10E49000FCCF8091C00080648093C0002B30310598
:10E4A00014F43297B4F0C90164E670E00F942EFEC4
:10E4B0006AE070E00F942EFE605D7F4F6093C600AF
:10E4C0008091C00086FFFCCF8091C0008064809363
:10E4D000C000C9016AE070E00F942EFEC0968093E0
:10E4E000C6008091C00086FFFCCF8091C000806490
:10E4F0008093C00008951F93182F8EE692EE60E07F
:10E500000F94C2F11093C6008091C00086FFFCCF2B
:10E510008091C00080648093C0000F94DCF11F9153
:10E5200008952F923F924F925F926F927F928F92B7
:10E530009F92AF92BF92CF92DF92EF92FF920F9392
:10E540001F93DF93CF93CDB7DEB762970FB6F894E2
:10E55000DEBF0FBECDBF382E622ECA01DB015C01CB
:10E560006D01772420E2222E2E010894411C511CBB
:10E570008BC081E0A81680E0B80681E0C80680E084
:10E58000D80628F0C601AA27BB270F940DF2BB2797
:10E59000AD2D9C2D8B2D0F940DF28A2D0F940DF225
:10E5A0002092C6008091C00086FFFCCF8091C00001
:10E5B00080648093C0009DE29093C6008091C0006B
:10E5C00086FFFCCF8091C00080648093C0002092C1
:10E5D000C6008091C00086FFFCCF8091C00080649F
:10E5E0008093C00019828601750188249924A1E0D6
:10E5F0003A1651F03A1620F0B2E03B1661F409C029
:10E600000BBFF701779007C0C7010F9477FE782EF4
:10E6100002C0F7017080872D0F940DF22092C60082
:10E620008091C00086FFFCCF8091C0008064809301
:10E63000C000872D8052F401EF70F0708F3520F408
:10E64000E40DF51D708204C0E40DF51D8EE280839B
:10E650000894E11CF11C011D111D0894811C911CE2
:10E6600090E18916910409F0C2CF80E190E0A0E02A
:10E67000B0E0A80EB91ECA1EDB1E198AC2010F9493
:10E68000FAF10F94DCF16A94662009F072CF629679
:10E690000FB6F894DEBF0FBECDBFCF91DF911F91B3
:10E6A0000F91FF90EF90DF90CF90BF90AF909F9031
:10E6B0008F907F906F905F904F903F902F90089534
:10E6C0002F923F924F925F926F927F928F929F9282
:10E6D000AF92BF92CF92DF92EF92FF920F931F9370
:10E6E000DF93CF93CDB7DEB7CD53D1400FB6F894BB
:10E6F000DEBF0FBECDBF01E20EBF0FEF0DBF94B75F
:10E70000F894A89514BE80916000886180936000A1
:10E7100010926000789493FF05C0E0910002F091A0
:10E7200001021995279A2F9A8091C00082608093E8
:10E73000C00080E18093C40088E18093C1000000A4
:10E74000EE24FF24870144E0A42EB12CCC24DD2448
:10E7500024C0C5010197F1F70894E11CF11C011DCB
:10E76000111D21E2E2162EE4F20620E0020720E06D
:10E77000120718F031E0C32ED12CC801B70127ECE5
:10E780003BE140E050E00F9441FE611571058105C9
:10E79000910519F485B1805885B98091C00087FD35
:10E7A00003C0C114D104A9F2A6014F5F5F4FC25E3E
:10E7B000DE4F59834883CE51D140C25EDE4F8881FF
:10E7C0009981CE51D140019711F00D9410FEC05D9A
:10E7D000DE4F19821882C053D14060E0C15DDE4F28
:10E7E0001882CF52D14088249924C35DDE4F19820C
:10E7F0001882CD52D140C05EDE4F188219821A8233
:10E800001B82C052D140CE5CDE4F188219821A8220
:10E810001B82C253D140EE24FF2487010BBFF701B6
:10E8200007911691C45CDE4F19830883CC53D14005
:10E830000D940BFEC25EDE4F28813981CE51D1404E
:10E840002130310509F52091C600C25EDE4F1982E4
:10E850001882CE51D14022C02F5F3F4F4F4F5F4FA4
:10E86000213082E138078AE7480780E0580780F0C6
:10E87000C45CDE4FE881F981CC53D140EF5FFF4F9C
:10E8800019F0EE27FF27099420E030E040E050E047
:10E890008091C00087FFE0CF2091C600C35DDE4FAE
:10E8A00048815981CD52D1404F5F5F4FC35DDE4FEC
:10E8B00059834883CD52D140213209F063C64A3092
:10E8C000510508F05FC60894811C911C53E0851621
:10E8D000910409F059C600E010E018C081E280936D
:10E8E000C6008091C00086FFFCCF8091C00080648C
:10E8F0008093C0002F5F3F4F2931310579F70F9486
:10E90000DCF10F5F1F4F0530110519F020E030E0FA
:10E91000E5CF10920A0210920B0210920C02109294
:10E920000D02109206021092070210920802109235
:10E930000902109202021092030210920402109235
:10E9400005028FEE90EE60E00F94F5F180E191EE1C
:10E9500060E00F94C2F18091C00087FFFCCF9091DE
:10E96000C600903608F09F759032B8F09093C600BC
:10E970008091C00086FFFCCF8091C00080648093AE
:10E98000C000A0E2A093C6008091C00086FFFCCF2B
:10E990008091C00080648093C000983409F4D7C18E
:10E9A0009934B8F4923409F459C1933458F490333B
:10E9B00019F1903308F4E3C59F33A1F1903409F0C5
:10E9C000DEC5BDC0953409F470C1963409F0D7C5D1
:10E9D00098C1923509F42BC2933538F49C3409F46C
:10E9E000F5C1913509F0CBC518C2963509F445C279
:10E9F000993509F0C4C567C483E792EE62E00F94CD
:10EA0000F5F110920602109207021092080210927D
:10EA1000090210920A0210920B0210920C0210923C
:10EA20000D0213C18FE792EE62E00F94F5F18FEEC5
:10EA300090EE60E00F94F5F181E291EE60E00F94CA
:10EA4000C2F187EB91EE60E00F94F5F180E391EE77
:10EA500060E00F94C2F184EE90EE60E00F94F5F167
:10EA60008FE391EE60E00F94C2F186E090E061E008
:10EA700070E00F9434F20F94DCF18DE591EE60E0DC
:10EA80000F94C2F189EC91EE60E00F94F5F18EE401
:10EA900091EE60E00F94C2F183EC91EE60E00F9490
:10EAA000F5F18CE691EE60E00F94C2F18EE10F94E7
:10EAB0000DF288E90F940DF281E00F940DF20F949E
:10EAC000DCF18BE791EE60E00F94C2F119E0E0E039
:10EAD000F0E010935700E4918E2F0F940DF20F94F5
:10EAE000DCF18AE891EE60E00F94C2F1E3E0F0E03F
:10EAF00010935700E4918E2F0F940DF20F94DCF1D8
:10EB000089E991EE60E00F94C2F1E2E0F0E0109349
:10EB10005700E4918E2F0F940DF20F94DCF188EAE8
:10EB200091EE60E00F94C2F1E1E0F0E01093570045
:10EB30001491812F0F940DF20F94DCF107CF8BE825
:10EB400092EE62E00F94F5F18BE492EE60E00F94A8
:10EB5000F5F10F94DCF100E010E019C0C8016F2D51
:10EB60000F947FFEFF2031F489E492EE60E00F9471
:10EB7000C2F10BC0F092C6008091C00086FFFCCFAE
:10EB80008091C00080648093C0000F5F1F4FC80158
:10EB900081519F41A0E0B0E0ABBFFC01F790BAE229
:10EBA000FB1621F0E2E000301E07C1F60F94DCF105
:10EBB0000F94DCF187E592EE60E00F94F5F10F948D
:10EBC000DCF1CC24DD2400E010E01EC0C8010F946D
:10EBD00077FEF82E882331F489E492EE60E00F94FA
:10EBE000C2F10BC08093C6008091C00086FFFCCFAD
:10EBF0008091C00080648093C000FE1419F00894D6
:10EC0000C11CD11C0F5F1F4FC80181519F41A0E063
:10EC1000B0E0ABBFFC01E790FAE2EF1621F022E092
:10EC20000030120799F60F94DCF10F94DCF182E6C4
:10EC300092EE60E00F94C2F1C60161E070E00F94C3
:10EC400034F20F94DCF10F94DCF110920202109276
:10EC50000302109204021092050278CE89E992EE26
:10EC600062E00F94F5F1279A2F9A16C02F9880E052
:10EC700090E0E0EDF7E03197F1F7019684369105E9
:10EC8000C1F72F9A80E090E0E0EDF7E03197F1F7DF
:10EC9000019684369105C1F78091C00087FFE6CFC9
:10ECA0008091C00087FFFCCF64C485EA92EE62E0E9
:10ECB0000F94F5F140910202509103026091040219
:10ECC0007091050281E020E10F9491F2809102029F
:10ECD00090910302A0910402B091050280509F4FD1
:10ECE000AF4FBF4F8093020290930302A0930402A0
:10ECF000B093050280509041A040B04008F426CE69
:10ED0000A4CF83EB92EE62E00F94F5F140910602FE
:10ED100050910702609108027091090280E020E1A1
:10ED20000F9491F28091060290910702A09108023F
:10ED3000B091090280509F4FAF4FBF4F80930602A2
:10ED400090930702A0930802B0930902FFCD80ECD4
:10ED500092EE62E00F94F5F183E792EE60E00F949B
:10ED6000F5F18FE792EE60E00F94F5F18BE892EE0B
:10ED700060E00F94F5F189E992EE60E00F94F5F10F
:10ED800085EA92EE60E00F94F5F183EB92EE60E09D
:10ED90000F94F5F180EC92EE60E00F94F5F187ECC2
:10EDA00092EE60E00F94F5F188ED92EE60E00F9442
:10EDB000F5F18FED92EE60E00F94F5F18AEE92EEB0
:10EDC00060E00F94F5F183E093EEBDCD87EC92EE19
:10EDD00062E00F94F5F181E40F947BF282E40F94EA
:10EDE0007BF283E40F947BF284E40F947BF285E45E
:10EDF0000F947BF286E40F947BF287E40F947BF20E
:10EE000088E40F947BF28AE40F947BF28BE40F94F6
:10EE10007BF28CE40F947BF299CD88ED92EE62E068
:10EE20000F94F5F1772473948824992409C48FED05
:10EE300092EE62E00F94F5F140910A0250910B02BC
:10EE400060910C0270910D0282E020E10F9491F22A
:10EE500080910A0290910B02A0910C02B0910D02D8
:10EE600080509F4FAF4FBF4F80930A0290930B0289
:10EE7000A0930C02B0930D0269CD8AEE92EE62E08F
:10EE80000F94F5F184EE90EE60E00F94F5F18FECC5
:10EE900091EE60E00F94F5F1662477244301CC5D98
:10EEA000DE4F19821882C452D140D401C301B695F5
:10EEB000A79597958795CA5DDE4F88839983AA8326
:10EEC000BB83C652D140CC5DDE4FA881B981C4520C
:10EED000D1401196CC5DDE4FB983A883C452D14096
:10EEE000CD0162E070E00F9434F2B0E2B093C6005E
:10EEF0008091C00086FFFCCF8091C0008064809329
:10EF0000C000EDE2E093C6008091C00086FFFCCF18
:10EF10008091C00080648093C000F0E2F093C6004E
:10EF20008091C00086FFFCCF8091C00080648093F8
:10EF3000C000CA5DDE4FE880F9800A811B81C6529D
:10EF4000D140BB27A12F902F8F2D0F940DF2CA5DBA
:10EF5000DE4F8881C652D1400F940DF2B0E2FB2EF5
:10EF6000F092C6008091C00086FFFCCF8091C00067
:10EF700080648093C0000DE30093C6008091C000C0
:10EF800086FFFCCF8091C00080648093C00010E2B7
:10EF90001093C6008091C00086FFFCCF8091C00016
:10EFA00080648093C0008BBEF3012791C65DDE4F65
:10EFB0002883CA52D140A22EBB24CC24DD2408943D
:10EFC000611C711C811C911C8BBEF3018791282E42
:10EFD0003324442455240894611C711C811C911C09
:10EFE0008BBEF3013791C55DDE4F3883CB52D140E4
:10EFF0000894611C711C811C911C8BBEF30147910C
:10F00000C45DDE4F4883CC52D140ADEFEA2EAFEF66
:10F01000FA2EAFEF0A2FAFEF1A2F6E0C7F1C801E57
:10F02000911E142D032DF22CEE24EA0CFB1C0C1D5A
:10F030001D1D0F940DF220E22093C6008091C000A8
:10F0400086FFFCCF8091C00080648093C000C65DC5
:10F05000DE4F8881CA52D1400F940DF230E23093D6
:10F06000C6008091C00086FFFCCF8091C000806404
:10F070008093C000C45DDE4F8881CC52D1400F9494
:10F080000DF240E24093C6008091C00086FFFCCFA5
:10F090008091C00080648093C000C55DDE4F888190
:10F0A000CB52D1400F940DF250E25093C6008091A4
:10F0B000C00086FFFCCF8091C00080648093C000B8
:10F0C0008FEFE8168FEFF80680E0080780E018075A
:10F0D00031F484E092EE60E00F94C2F1DFC0D80119
:10F0E000C7018070907CA070B0708050904CA040A0
:10F0F000B040D1F52FEF3FE340E050E0E222F322B1
:10F1000004231523CA5DDE4FA880B980CA80DB8046
:10F11000C652D140AE0CBF1CC01ED11EAA0CBB1CD7
:10F12000CC1CDD1C8EE092EE60E00F94C2F1BB2798
:10F13000A12F902F8F2D0F940DF28E2D0F940DF285
:10F1400030E23093C6008091C00086FFFCCF8091F2
:10F15000C00080648093C0004EE34093C60080915D
:10F16000C00086FFFCCF87C08EE09EEFA0E0B0E03D
:10F17000E822F9220A231B239CE0E91694E9F90608
:10F1800090E0090790E0190709F088C0C45DDE4FE0
:10F19000A881CC52D140EA2EFF2400E010E0102FCD
:10F1A0000F2DFE2CEE24C55DDE4FB881CB52D14031
:10F1B000EB0EF11C011D111DD601C501817090706F
:10F1C000A070B070DC0199278827E80EF91E0A1F8D
:10F1D0001B1F20EF30E040E050E0A222B322C42207
:10F1E000D52241E1AA0CBB1CCC1CDD1C4A95D1F7F1
:10F1F000EA0CFB1C0C1D1D1D81E090E0A0E0B0E0BE
:10F20000282239224A225B2235E1220C331C441C7D
:10F21000551C3A95D1F7E20CF31C041D151D57013E
:10F220006801AA0CBB1CCC1CDD1C85E192EE60E0E1
:10F230000F94C2F1C801AA27BB270F940DF2BB2778
:10F24000A12F902F8F2D0F940DF28E2D0F940DF274
:10F2500090E29093C6008091C00086FFFCCF809121
:10F26000C00080648093C000AEE3A093C60080918C
:10F27000C00086FFFCCF8091C00080648093C000F6
:10F28000C601AA27BB270F940DF2BB27AD2D9C2DDD
:10F290008B2D0F940DF28A2D0F940DF20F94DCF14B
:10F2A000CC5DDE4FE881F981C452D140F99709F471
:10F2B0004DCBF4E0EF2EF12C012D112D6E0C7F1CA7
:10F2C000801E911EF2CD83E093EE62E00F94F5F183
:10F2D0008AE192EE60E00F94C2F18091C00087FF56
:10F2E000FCCF1091C6001F751093C6008091C0001E
:10F2F00086FFFCCF8091C00080648093C0000F9493
:10F30000DCF1812F81548A3108F036C1163409F4BA
:10F3100095C0173490F4133409F44EC0143430F40B
:10F320001134F1F0123409F01DC130C0143409F465
:10F3300059C0153409F016C16BC01A3409F4C4C0A1
:10F340001B3438F4173409F48FC0183409F00AC19B
:10F35000A1C01B3409F4D2C01C3409F003C1E8C0B9
:10F360008FEF81B90DC082B1809582B980E090E0C5
:10F37000E0EDF7E03197F1F70196883C9105C1F790
:10F380008091C00087FFEFCF12B8EFC08FEF84B934
:10F390000DC085B1809585B980E090E0E0EDF7E0A3
:10F3A0003197F1F70196883C9105C1F78091C00033
:10F3B00087FFEFCF15B8D9C08FEF87B90DC088B1DF
:10F3C000809588B980E090E0E0EDF7E03197F1F7C3
:10F3D0000196883C9105C1F78091C00087FFEFCF6F
:10F3E00018B8C3C08FEF8AB90DC08BB180958BB9A7
:10F3F00080E090E0E0EDF7E03197F1F70196883C8E
:10F400009105C1F78091C00087FFEFCF1BB8ADC059
:10F410008FEF8DB90DC08EB180958EB980E090E0F0
:10F42000E0EDF7E03197F1F70196883C9105C1F7DF
:10F430008091C00087FFEFCF1EB897C08FEF80BBD1
:10F440000DC081B3809581BB80E090E0E0EDF7E0F6
:10F450003197F1F70196883C9105C1F78091C00082
:10F4600087FFEFCF11BA81C08FEF83BB0DC084B38C
:10F47000809584BB80E090E0E0EDF7E03197F1F714
:10F480000196883C9105C1F78091C00087FFEFCFBE
:10F4900014BA6BC08FEF809301010FC080910201FD
:10F4A00080958093020180E090E0E0EDF7E03197F5
:10F4B000F1F70196883C9105C1F78091C00087FF64
:10F4C000EDCF1092020151C08FEF809304010FC065
:10F4D0008091050180958093050180E090E0E0ED4A
:10F4E000F7E03197F1F70196883C9105C1F78091DB
:10F4F000C00087FFEDCF1092050137C08FEF8093DA
:10F5000007010FC08091080180958093080180E079
:10F5100090E0E0EDF7E03197F1F70196883C910536
:10F52000C1F78091C00087FFEDCF109208011DC088
:10F530008FEF80930A010FC080910B01809580931B
:10F540000B0180E090E0E0EDF7E03197F1F70196F4
:10F55000883C9105C1F78091C00087FFEDCF1092E4
:10F560000B0103C085E292EEEEC98091C00087FFD7
:10F57000FCCF8091C600EAC988E392EEE4C98CE131
:10F5800091EEE1C988249924933011F1943028F444
:10F59000913089F09230B8F408C0953061F195301F
:10F5A000F0F0963009F048C043C02B3109F042C951
:10F5B00091E06BE13FC96227C15DDE4F2883CF52E6
:10F5C000D14092E037C9B22FA0E0622793E032C960
:10F5D000822F90E0A82BB92B622794E02BC92E3004
:10F5E00009F039C3622795E0C05DDE4F19821882A9
:10F5F000C053D1401FC9E1E0F0E0EC0FFD1FC05D3A
:10F60000DE4F08811981C053D140E00FF11F2083E4
:10F610000F5F1F4FC05DDE4F19830883C053D14079
:10F6200062270A171B0709F005C9D80196E002C92D
:10F63000261709F010C303C0973009F0FBC87724E0
:10F640009981933109F412C19431C8F4963009F4C8
:10F65000D8C0973050F4923009F406C1933009F4C1
:10F660006DC0913009F059C253C0913109F477C08F
:10F67000923108F0BBC0903109F04FC2F5C098310B
:10F6800009F487C0993150F4953109F4EFC09531F0
:10F6900008F4C6C1963109F040C2C2C19A3109F4DA
:10F6A0006CC09A3108F491C09B3109F45BC09D3164
:10F6B00009F033C29D81903359F48F81882311F46E
:10F6C0009EE11CC0813011F091E018C098E916C08D
:10F6D000892F807591F0903539F4E0E0F0E089E011
:10F6E0008093570094910AC0983539F4E3E0F0E034
:10F6F00089E080935700949101C090E01A821B82A8
:10F700008D818C831D829E831F8227E030E009C299
:10F710001A8288E08B8381E48C8386E58D8382E581
:10F720008E8389E48F8383E5888780E589878FE5E9
:10F730008A8782E38B872BE030E0F3C18A818139AD
:10F7400041F0823941F0803911F48FE005C080E04A
:10F7500003C082E001C08AE01A828B8344C0772410
:10F76000739482C08D81882311F48EE12CC0813086
:10F7700011F081E028C088E926C01A82E1E0F0E0BB
:10F7800089E08093570084918B831C8224E030E0D1
:10F79000C8C18B81803589F48C81883039F4E2E0EE
:10F7A000F0E089E08093570084910DC0E0E0F0E044
:10F7B00089E080935700849106C0E3E0F0E089E09F
:10F7C0008093570084911A82DFCF8D81836C99E0FA
:10F7D000E1E0F0E0082E90935700E89507B600FCB2
:10F7E000FDCF1A821B8223E030E09BC180EC8A832C
:10F7F000CE5CDE4F188219821A821B82C253D1401E
:10F800008EC18A8190E0A0E0B0E0582F44273327D2
:10F8100022278B8190E0A0E0B0E0DC0199278827C7
:10F82000282B392B4A2B5B2B8D8190E0A0E0B0E098
:10F83000282B392B4A2B5B2B8C8190E0A0E0B0E089
:10F84000BA2FA92F982F8827282B392B4A2B5B2BCF
:10F85000220F331F441F551FC05EDE4F288339839C
:10F860004A835B83C052D1401A8259C13A81C95C34
:10F87000DE4F3883C753D140CA5CDE4F1882C6536F
:10F88000D1408B81C82EDD24CA5CDE4F488159816E
:10F89000C653D140C42AD52A933109F082C0CE5C28
:10F8A000DE4F88819981AA81BB81C253D1408050AB
:10F8B000904CA340B04030F583E0CE5CDE4FE88052
:10F8C000F9800A811B81C253D140F70100935B008C
:10F8D00080935700E89507B600FCFDCFCE5CDE4F65
:10F8E000088119812A813B81C253D14000501F4FAA
:10F8F0002F4F3F4FCE5CDE4F088319832A833B8313
:10F90000C253D140C05EDE4F488159816A817B81FC
:10F91000C052D140DE011B9631E08C9111962C91A2
:10F9200011971296C75CDE4F2883C953D140C85C3B
:10F93000DE4F1882C853D14090E0C85CDE4FE881AA
:10F94000F981C853D1408E2B9F2B0C01FA01609393
:10F950005B0030935700E89511244E5F5F4F6F4F67
:10F960007F4F0EEFE02E0FEFF02ECE0CDF1CC114F8
:10F97000D10499F685E0C05EDE4F088119812A81A5
:10F980003B81C052D140F80120935B008093570027
:10F99000E89507B600FCFDCF81E180935700E8951C
:10F9A00035C0C05EDE4F88819981AA81BB81C0527B
:10F9B000D140B695A795979587957C018601ABE0D8
:10F9C000AA2EB12CAC0EBD1E0BC0D5016D915D01F0
:10F9D000C7010F947FFE0894E11CF11C01501040F8
:10F9E0000115110591F7A60160E070E0440F551F65
:10F9F000661F771FC05EDE4FE880F9800A811B8199
:10FA0000C052D1404E0D5F1D601F711F1A82C05E33
:10FA1000DE4F488359836A837B83C052D1407FC0C5
:10FA2000FA80C55CDE4FF882CB53D140C65CDE4F16
:10FA30001882CA53D1408B81C82EDD24C65CDE4FAC
:10FA400008811981CA53D140C02AD12A1A828981DA
:10FA5000BE016D5F7F4F843121F59601C05EDE4FA0
:10FA6000E880F9800A811B81C052D1400BBFF701A9
:10FA700087919691DB018C9311969C936E5F7F4FDB
:10FA8000D801C7010296A11DB11DC05EDE4F88835B
:10FA90009983AA83BB83C052D14022503040F1F6F3
:10FAA00036C0C05EDE4F288139814A815B81C052F9
:10FAB000D1400894C108D108760100E010E0089414
:10FAC000C11CD11C0894E11CF11C011D111DE20E8A
:10FAD000F31E041F151F21BDBB27A52F942F832FB5
:10FAE00082BD2F5F3F4F4F4F5F4FF89A80B5DB01CC
:10FAF0008D93BD012E153F054007510761F7C05E8C
:10FB0000DE4F288339834A835B83C052D1409601FC
:10FB10002D5F3F4FFB01108204C080EC8A8322E0FE
:10FB200030E08BE18093C6008091C00086FFFCCF5F
:10FB30008091C00080648093C000C15DDE4FF88179
:10FB4000CF52D140F093C6008091C00086FFFCCF19
:10FB50008091C00080648093C000432F3093C60022
:10FB60008091C00086FFFCCF8091C00080648093AC
:10FB7000C000922F2093C6008091C00086FFFCCF6A
:10FB80008091C00080648093C0008EE08093C600A6
:10FB90008091C00086FFFCCF8091C000806480937C
:10FBA000C00065E1C15DDE4FE880CF52D1406E25D7
:10FBB00069276427FE01319610C090819093C6009A
:10FBC0008091C00086FFFCCF31968091C000806498
:10FBD0008093C0006927215030402115310569F715
:10FBE0006093C6008091C00086FFFCCF8091C0006A
:10FBF00080648093C00085B1805885B9772081F4F6
:10FC0000C15DDE4F0881CF52D1400F5FC15DDE4F35
:10FC10000883CF52D14090E0A0E0B0E00D941AF4F8
:10FC200027982F9880E090E020ED37E0F901319798
:10FC3000F1F7019684369105C9F700008091C00064
:10FC40008D7F8093C00081E180935700E895EE2777
:10FC5000FF270994FFCF90E00D941AF497FB092E2B
:10FC600007260AD077FD04D02ED006D000201AF443
:10FC7000709561957F4F0895F6F7909581959F4F08
:10FC80000895A1E21A2EAA1BBB1BFD010DC0AA1FDD
:10FC9000BB1FEE1FFF1FA217B307E407F50720F0F5
:10FCA000A21BB30BE40BF50B661F771F881F991F70
:10FCB0001A9469F760957095809590959B01AC01B9
:10FCC000BD01CF010895AA1BBB1B51E107C0AA1FAC
:10FCD000BB1FA617B70710F0A61BB70B881F991FED
:10FCE0005A95A9F780959095BC01CD010895F99991
:10FCF000FECF92BD81BDF89A992780B50895262F31
:10FD0000F999FECF1FBA92BD81BD20BD0FB6F89400
:0EFD1000FA9AF99A0FBE01960895F894FFCF63
:040000033000E000E9
:00000001FF